{
  "_format": "hh-sol-artifact-1",
  "contractName": "Certificate",
  "sourceName": "contracts/Certificate.sol",
  "abi": [
    {
      "inputs": [
        {
          "internalType": "string",
          "name": "name",
          "type": "string"
        },
        {
          "internalType": "string",
          "name": "symbol",
          "type": "string"
        }
      ],
      "stateMutability": "nonpayable",
      "type": "constructor"
    },
    {
      "anonymous": false,
      "inputs": [
        {
          "indexed": true,
          "internalType": "address",
          "name": "owner",
          "type": "address"
        },
        {
          "indexed": true,
          "internalType": "address",
          "name": "approved",
          "type": "address"
        },
        {
          "indexed": true,
          "internalType": "uint256",
          "name": "tokenId",
          "type": "uint256"
        }
      ],
      "name": "Approval",
      "type": "event"
    },
    {
      "anonymous": false,
      "inputs": [
        {
          "indexed": true,
          "internalType": "address",
          "name": "owner",
          "type": "address"
        },
        {
          "indexed": true,
          "internalType": "address",
          "name": "operator",
          "type": "address"
        },
        {
          "indexed": false,
          "internalType": "bool",
          "name": "approved",
          "type": "bool"
        }
      ],
      "name": "ApprovalForAll",
      "type": "event"
    },
    {
      "anonymous": false,
      "inputs": [
        {
          "indexed": true,
          "internalType": "address",
          "name": "user",
          "type": "address"
        },
        {
          "indexed": true,
          "internalType": "uint256",
          "name": "courseId",
          "type": "uint256"
        },
        {
          "indexed": false,
          "internalType": "uint256",
          "name": "tokenId",
          "type": "uint256"
        }
      ],
      "name": "CertificateMinted",
      "type": "event"
    },
    {
      "anonymous": false,
      "inputs": [
        {
          "indexed": true,
          "internalType": "address",
          "name": "previousOwner",
          "type": "address"
        },
        {
          "indexed": true,
          "internalType": "address",
          "name": "newOwner",
          "type": "address"
        }
      ],
      "name": "OwnershipTransferred",
      "type": "event"
    },
    {
      "anonymous": false,
      "inputs": [
        {
          "indexed": true,
          "internalType": "address",
          "name": "from",
          "type": "address"
        },
        {
          "indexed": true,
          "internalType": "address",
          "name": "to",
          "type": "address"
        },
        {
          "indexed": true,
          "internalType": "uint256",
          "name": "tokenId",
          "type": "uint256"
        }
      ],
      "name": "Transfer",
      "type": "event"
    },
    {
      "inputs": [
        {
          "internalType": "address",
          "name": "to",
          "type": "address"
        },
        {
          "internalType": "uint256",
          "name": "tokenId",
          "type": "uint256"
        }
      ],
      "name": "approve",
      "outputs": [],
      "stateMutability": "nonpayable",
      "type": "function"
    },
    {
      "inputs": [
        {
          "internalType": "address",
          "name": "owner",
          "type": "address"
        }
      ],
      "name": "balanceOf",
      "outputs": [
        {
          "internalType": "uint256",
          "name": "",
          "type": "uint256"
        }
      ],
      "stateMutability": "view",
      "type": "function"
    },
    {
      "inputs": [
        {
          "internalType": "uint256",
          "name": "tokenId",
          "type": "uint256"
        }
      ],
      "name": "getApproved",
      "outputs": [
        {
          "internalType": "address",
          "name": "",
          "type": "address"
        }
      ],
      "stateMutability": "view",
      "type": "function"
    },
    {
      "inputs": [
        {
          "internalType": "address",
          "name": "",
          "type": "address"
        },
        {
          "internalType": "uint256",
          "name": "",
          "type": "uint256"
        }
      ],
      "name": "hasCertificate",
      "outputs": [
        {
          "internalType": "bool",
          "name": "",
          "type": "bool"
        }
      ],
      "stateMutability": "view",
      "type": "function"
    },
    {
      "inputs": [
        {
          "internalType": "address",
          "name": "owner",
          "type": "address"
        },
        {
          "internalType": "address",
          "name": "operator",
          "type": "address"
        }
      ],
      "name": "isApprovedForAll",
      "outputs": [
        {
          "internalType": "bool",
          "name": "",
          "type": "bool"
        }
      ],
      "stateMutability": "view",
      "type": "function"
    },
    {
      "inputs": [
        {
          "internalType": "address",
          "name": "user",
          "type": "address"
        },
        {
          "internalType": "uint256",
          "name": "courseId",
          "type": "uint256"
        },
        {
          "internalType": "string",
          "name": "tokenURI",
          "type": "string"
        }
      ],
      "name": "mintCertificate",
      "outputs": [
        {
          "internalType": "uint256",
          "name": "",
          "type": "uint256"
        }
      ],
      "stateMutability": "nonpayable",
      "type": "function"
    },
    {
      "inputs": [],
      "name": "name",
      "outputs": [
        {
          "internalType": "string",
          "name": "",
          "type": "string"
        }
      ],
      "stateMutability": "view",
      "type": "function"
    },
    {
      "inputs": [],
      "name": "owner",
      "outputs": [
        {
          "internalType": "address",
          "name": "",
          "type": "address"
        }
      ],
      "stateMutability": "view",
      "type": "function"
    },
    {
      "inputs": [
        {
          "internalType": "uint256",
          "name": "tokenId",
          "type": "uint256"
        }
      ],
      "name": "ownerOf",
      "outputs": [
        {
          "internalType": "address",
          "name": "",
          "type": "address"
        }
      ],
      "stateMutability": "view",
      "type": "function"
    },
    {
      "inputs": [],
      "name": "renounceOwnership",
      "outputs": [],
      "stateMutability": "nonpayable",
      "type": "function"
    },
    {
      "inputs": [
        {
          "internalType": "address",
          "name": "from",
          "type": "address"
        },
        {
          "internalType": "address",
          "name": "to",
          "type": "address"
        },
        {
          "internalType": "uint256",
          "name": "tokenId",
          "type": "uint256"
        }
      ],
      "name": "safeTransferFrom",
      "outputs": [],
      "stateMutability": "nonpayable",
      "type": "function"
    },
    {
      "inputs": [
        {
          "internalType": "address",
          "name": "from",
          "type": "address"
        },
        {
          "internalType": "address",
          "name": "to",
          "type": "address"
        },
        {
          "internalType": "uint256",
          "name": "tokenId",
          "type": "uint256"
        },
        {
          "internalType": "bytes",
          "name": "data",
          "type": "bytes"
        }
      ],
      "name": "safeTransferFrom",
      "outputs": [],
      "stateMutability": "nonpayable",
      "type": "function"
    },
    {
      "inputs": [
        {
          "internalType": "address",
          "name": "operator",
          "type": "address"
        },
        {
          "internalType": "bool",
          "name": "approved",
          "type": "bool"
        }
      ],
      "name": "setApprovalForAll",
      "outputs": [],
      "stateMutability": "nonpayable",
      "type": "function"
    },
    {
      "inputs": [
        {
          "internalType": "bytes4",
          "name": "interfaceId",
          "type": "bytes4"
        }
      ],
      "name": "supportsInterface",
      "outputs": [
        {
          "internalType": "bool",
          "name": "",
          "type": "bool"
        }
      ],
      "stateMutability": "view",
      "type": "function"
    },
    {
      "inputs": [],
      "name": "symbol",
      "outputs": [
        {
          "internalType": "string",
          "name": "",
          "type": "string"
        }
      ],
      "stateMutability": "view",
      "type": "function"
    },
    {
      "inputs": [
        {
          "internalType": "uint256",
          "name": "index",
          "type": "uint256"
        }
      ],
      "name": "tokenByIndex",
      "outputs": [
        {
          "internalType": "uint256",
          "name": "",
          "type": "uint256"
        }
      ],
      "stateMutability": "view",
      "type": "function"
    },
    {
      "inputs": [
        {
          "internalType": "address",
          "name": "owner",
          "type": "address"
        },
        {
          "internalType": "uint256",
          "name": "index",
          "type": "uint256"
        }
      ],
      "name": "tokenOfOwnerByIndex",
      "outputs": [
        {
          "internalType": "uint256",
          "name": "",
          "type": "uint256"
        }
      ],
      "stateMutability": "view",
      "type": "function"
    },
    {
      "inputs": [
        {
          "internalType": "uint256",
          "name": "tokenId",
          "type": "uint256"
        }
      ],
      "name": "tokenURI",
      "outputs": [
        {
          "internalType": "string",
          "name": "",
          "type": "string"
        }
      ],
      "stateMutability": "view",
      "type": "function"
    },
    {
      "inputs": [],
      "name": "totalSupply",
      "outputs": [
        {
          "internalType": "uint256",
          "name": "",
          "type": "uint256"
        }
      ],
      "stateMutability": "view",
      "type": "function"
    },
    {
      "inputs": [
        {
          "internalType": "address",
          "name": "from",
          "type": "address"
        },
        {
          "internalType": "address",
          "name": "to",
          "type": "address"
        },
        {
          "internalType": "uint256",
          "name": "tokenId",
          "type": "uint256"
        }
      ],
      "name": "transferFrom",
      "outputs": [],
      "stateMutability": "nonpayable",
      "type": "function"
    },
    {
      "inputs": [
        {
          "internalType": "address",
          "name": "newOwner",
          "type": "address"
        }
      ],
      "name": "transferOwnership",
      "outputs": [],
      "stateMutability": "nonpayable",
      "type": "function"
    }
  ],
  "bytecode": "0x60806040523480156200001157600080fd5b5060405162004048380380620040488339818101604052810190620000379190620002e8565b818181600090816200004a9190620005b8565b5080600190816200005c9190620005b8565b5050506200007f620000736200008760201b60201c565b6200008f60201b60201c565b50506200069f565b600033905090565b6000600b60009054906101000a900473ffffffffffffffffffffffffffffffffffffffff16905081600b60006101000a81548173ffffffffffffffffffffffffffffffffffffffff021916908373ffffffffffffffffffffffffffffffffffffffff1602179055508173ffffffffffffffffffffffffffffffffffffffff168173ffffffffffffffffffffffffffffffffffffffff167f8be0079c531659141344cd1fd0a4f28419497f9722a3daafe3b4186f6b6457e060405160405180910390a35050565b6000604051905090565b600080fd5b600080fd5b600080fd5b600080fd5b6000601f19601f8301169050919050565b7f4e487b7100000000000000000000000000000000000000000000000000000000600052604160045260246000fd5b620001be8262000173565b810181811067ffffffffffffffff82111715620001e057620001df62000184565b5b80604052505050565b6000620001f562000155565b9050620002038282620001b3565b919050565b600067ffffffffffffffff82111562000226576200022562000184565b5b620002318262000173565b9050602081019050919050565b60005b838110156200025e57808201518184015260208101905062000241565b60008484015250505050565b6000620002816200027b8462000208565b620001e9565b905082815260208101848484011115620002a0576200029f6200016e565b5b620002ad8482856200023e565b509392505050565b600082601f830112620002cd57620002cc62000169565b5b8151620002df8482602086016200026a565b91505092915050565b600080604083850312156200030257620003016200015f565b5b600083015167ffffffffffffffff81111562000323576200032262000164565b5b6200033185828601620002b5565b925050602083015167ffffffffffffffff81111562000355576200035462000164565b5b6200036385828601620002b5565b9150509250929050565b600081519050919050565b7f4e487b7100000000000000000000000000000000000000000000000000000000600052602260045260246000fd5b60006002820490506001821680620003c057607f821691505b602082108103620003d657620003d562000378565b5b50919050565b60008190508160005260206000209050919050565b60006020601f8301049050919050565b600082821b905092915050565b600060088302620004407fffffffffffffffffffffffffffffffffffffffffffffffffffffffffffffffff8262000401565b6200044c868362000401565b95508019841693508086168417925050509392505050565b6000819050919050565b6000819050919050565b600062000499620004936200048d8462000464565b6200046e565b62000464565b9050919050565b6000819050919050565b620004b58362000478565b620004cd620004c482620004a0565b8484546200040e565b825550505050565b600090565b620004e4620004d5565b620004f1818484620004aa565b505050565b5b8181101562000519576200050d600082620004da565b600181019050620004f7565b5050565b601f82111562000568576200053281620003dc565b6200053d84620003f1565b810160208510156200054d578190505b620005656200055c85620003f1565b830182620004f6565b50505b505050565b600082821c905092915050565b60006200058d600019846008026200056d565b1980831691505092915050565b6000620005a883836200057a565b9150826002028217905092915050565b620005c3826200036d565b67ffffffffffffffff811115620005df57620005de62000184565b5b620005eb8254620003a7565b620005f88282856200051d565b600060209050601f8311600181146200063057600084156200061b578287015190505b6200062785826200059a565b86555062000697565b601f1984166200064086620003dc565b60005b828110156200066a5784890151825560018201915060208501945060208101905062000643565b868310156200068a578489015162000686601f8916826200057a565b8355505b6001600288020188555050505b505050505050565b61399980620006af6000396000f3fe608060405234801561001057600080fd5b50600436106101375760003560e01c80636352211e116100b8578063a22cb4651161007c578063a22cb46514610362578063a70d0e451461037e578063b88d4fde146103ae578063c87b56dd146103ca578063e985e9c5146103fa578063f2fde38b1461042a57610137565b80636352211e146102bc57806370a08231146102ec578063715018a61461031c5780638da5cb5b1461032657806395d89b411461034457610137565b806318160ddd116100ff57806318160ddd1461020657806323b872dd146102245780632f745c591461024057806342842e0e146102705780634f6ccce71461028c57610137565b806301ffc9a71461013c57806306fdde031461016c578063081812fc1461018a578063095ea7b3146101ba5780630ce7ed98146101d6575b600080fd5b61015660048036038101906101519190612390565b610446565b60405161016391906123d8565b60405180910390f35b610174610458565b6040516101819190612483565b60405180910390f35b6101a4600480360381019061019f91906124db565b6104ea565b6040516101b19190612549565b60405180910390f35b6101d460048036038101906101cf9190612590565b610530565b005b6101f060048036038101906101eb9190612590565b610647565b6040516101fd91906123d8565b60405180910390f35b61020e610676565b60405161021b91906125df565b60405180910390f35b61023e600480360381019061023991906125fa565b610683565b005b61025a60048036038101906102559190612590565b6106e3565b60405161026791906125df565b60405180910390f35b61028a600480360381019061028591906125fa565b610788565b005b6102a660048036038101906102a191906124db565b6107a8565b6040516102b391906125df565b60405180910390f35b6102d660048036038101906102d191906124db565b610819565b6040516102e39190612549565b60405180910390f35b6103066004803603810190610301919061264d565b6108ca565b60405161031391906125df565b60405180910390f35b610324610981565b005b61032e610995565b60405161033b9190612549565b60405180910390f35b61034c6109bf565b6040516103599190612483565b60405180910390f35b61037c600480360381019061037791906126a6565b610a51565b005b6103986004803603810190610393919061281b565b610a67565b6040516103a591906125df565b60405180910390f35b6103c860048036038101906103c3919061292b565b610bfe565b005b6103e460048036038101906103df91906124db565b610c60565b6040516103f19190612483565b60405180910390f35b610414600480360381019061040f91906129ae565b610c72565b60405161042191906123d8565b60405180910390f35b610444600480360381019061043f919061264d565b610d06565b005b600061045182610d89565b9050919050565b60606000805461046790612a1d565b80601f016020809104026020016040519081016040528092919081815260200182805461049390612a1d565b80156104e05780601f106104b5576101008083540402835291602001916104e0565b820191906000526020600020905b8154815290600101906020018083116104c357829003601f168201915b5050505050905090565b60006104f582610e03565b6004600083815260200190815260200160002060009054906101000a900473ffffffffffffffffffffffffffffffffffffffff169050919050565b600061053b82610819565b90508073ffffffffffffffffffffffffffffffffffffffff168373ffffffffffffffffffffffffffffffffffffffff16036105ab576040517f08c379a00000000000000000000000000000000000000000000000000000000081526004016105a290612ac0565b60405180910390fd5b8073ffffffffffffffffffffffffffffffffffffffff166105ca610e4e565b73ffffffffffffffffffffffffffffffffffffffff1614806105f957506105f8816105f3610e4e565b610c72565b5b610638576040517f08c379a000000000000000000000000000000000000000000000000000000000815260040161062f90612b52565b60405180910390fd5b6106428383610e56565b505050565b600d6020528160005260406000206020528060005260406000206000915091509054906101000a900460ff1681565b6000600880549050905090565b61069461068e610e4e565b82610f0f565b6106d3576040517f08c379a00000000000000000000000000000000000000000000000000000000081526004016106ca90612be4565b60405180910390fd5b6106de838383610fa4565b505050565b60006106ee836108ca565b821061072f576040517f08c379a000000000000000000000000000000000000000000000000000000000815260040161072690612c76565b60405180910390fd5b600660008473ffffffffffffffffffffffffffffffffffffffff1673ffffffffffffffffffffffffffffffffffffffff168152602001908152602001600020600083815260200190815260200160002054905092915050565b6107a383838360405180602001604052806000815250610bfe565b505050565b60006107b2610676565b82106107f3576040517f08c379a00000000000000000000000000000000000000000000000000000000081526004016107ea90612d08565b60405180910390fd5b6008828154811061080757610806612d28565b5b90600052602060002001549050919050565b6000806002600084815260200190815260200160002060009054906101000a900473ffffffffffffffffffffffffffffffffffffffff169050600073ffffffffffffffffffffffffffffffffffffffff168173ffffffffffffffffffffffffffffffffffffffff16036108c1576040517f08c379a00000000000000000000000000000000000000000000000000000000081526004016108b890612da3565b60405180910390fd5b80915050919050565b60008073ffffffffffffffffffffffffffffffffffffffff168273ffffffffffffffffffffffffffffffffffffffff160361093a576040517f08c379a000000000000000000000000000000000000000000000000000000000815260040161093190612e35565b60405180910390fd5b600360008373ffffffffffffffffffffffffffffffffffffffff1673ffffffffffffffffffffffffffffffffffffffff168152602001908152602001600020549050919050565b61098961120a565b6109936000611288565b565b6000600b60009054906101000a900473ffffffffffffffffffffffffffffffffffffffff16905090565b6060600180546109ce90612a1d565b80601f01602080910402602001604051908101604052809291908181526020018280546109fa90612a1d565b8015610a475780601f10610a1c57610100808354040283529160200191610a47565b820191906000526020600020905b815481529060010190602001808311610a2a57829003601f168201915b5050505050905090565b610a63610a5c610e4e565b838361134e565b5050565b6000610a7161120a565b600d60008573ffffffffffffffffffffffffffffffffffffffff1673ffffffffffffffffffffffffffffffffffffffff168152602001908152602001600020600084815260200190815260200160002060009054906101000a900460ff1615610b0f576040517f08c379a0000000000000000000000000000000000000000000000000000000008152600401610b0690612ec7565b60405180910390fd5b610b19600c6114ba565b6000610b25600c6114d0565b9050610b3185826114de565b610b3b81846114fc565b6001600d60008773ffffffffffffffffffffffffffffffffffffffff1673ffffffffffffffffffffffffffffffffffffffff168152602001908152602001600020600086815260200190815260200160002060006101000a81548160ff021916908315150217905550838573ffffffffffffffffffffffffffffffffffffffff167ffb2a8276c788bcdeaec6f4ec55f21fc636460802e63cb7e05337309232a1b90583604051610beb91906125df565b60405180910390a3809150509392505050565b610c0f610c09610e4e565b83610f0f565b610c4e576040517f08c379a0000000000000000000000000000000000000000000000000000000008152600401610c4590612be4565b60405180910390fd5b610c5a84848484611569565b50505050565b6060610c6b826115c5565b9050919050565b6000600560008473ffffffffffffffffffffffffffffffffffffffff1673ffffffffffffffffffffffffffffffffffffffff16815260200190815260200160002060008373ffffffffffffffffffffffffffffffffffffffff1673ffffffffffffffffffffffffffffffffffffffff16815260200190815260200160002060009054906101000a900460ff16905092915050565b610d0e61120a565b600073ffffffffffffffffffffffffffffffffffffffff168173ffffffffffffffffffffffffffffffffffffffff1603610d7d576040517f08c379a0000000000000000000000000000000000000000000000000000000008152600401610d7490612f59565b60405180910390fd5b610d8681611288565b50565b60007f780e9d63000000000000000000000000000000000000000000000000000000007bffffffffffffffffffffffffffffffffffffffffffffffffffffffff1916827bffffffffffffffffffffffffffffffffffffffffffffffffffffffff19161480610dfc5750610dfb826116d7565b5b9050919050565b610e0c816117b9565b610e4b576040517f08c379a0000000000000000000000000000000000000000000000000000000008152600401610e4290612da3565b60405180910390fd5b50565b600033905090565b816004600083815260200190815260200160002060006101000a81548173ffffffffffffffffffffffffffffffffffffffff021916908373ffffffffffffffffffffffffffffffffffffffff160217905550808273ffffffffffffffffffffffffffffffffffffffff16610ec983610819565b73ffffffffffffffffffffffffffffffffffffffff167f8c5be1e5ebec7d5bd14f71427d1e84f3dd0314c0f7b2291e5b200ac8c7c3b92560405160405180910390a45050565b600080610f1b83610819565b90508073ffffffffffffffffffffffffffffffffffffffff168473ffffffffffffffffffffffffffffffffffffffff161480610f5d5750610f5c8185610c72565b5b80610f9b57508373ffffffffffffffffffffffffffffffffffffffff16610f83846104ea565b73ffffffffffffffffffffffffffffffffffffffff16145b91505092915050565b8273ffffffffffffffffffffffffffffffffffffffff16610fc482610819565b73ffffffffffffffffffffffffffffffffffffffff161461101a576040517f08c379a000000000000000000000000000000000000000000000000000000000815260040161101190612feb565b60405180910390fd5b600073ffffffffffffffffffffffffffffffffffffffff168273ffffffffffffffffffffffffffffffffffffffff1603611089576040517f08c379a00000000000000000000000000000000000000000000000000000000081526004016110809061307d565b60405180910390fd5b611094838383611825565b61109f600082610e56565b6001600360008573ffffffffffffffffffffffffffffffffffffffff1673ffffffffffffffffffffffffffffffffffffffff16815260200190815260200160002060008282546110ef91906130cc565b925050819055506001600360008473ffffffffffffffffffffffffffffffffffffffff1673ffffffffffffffffffffffffffffffffffffffff16815260200190815260200160002060008282546111469190613100565b92505081905550816002600083815260200190815260200160002060006101000a81548173ffffffffffffffffffffffffffffffffffffffff021916908373ffffffffffffffffffffffffffffffffffffffff160217905550808273ffffffffffffffffffffffffffffffffffffffff168473ffffffffffffffffffffffffffffffffffffffff167fddf252ad1be2c89b69c2b068fc378daa952ba7f163c4a11628f55a4df523b3ef60405160405180910390a46112058383836118db565b505050565b611212610e4e565b73ffffffffffffffffffffffffffffffffffffffff16611230610995565b73ffffffffffffffffffffffffffffffffffffffff1614611286576040517f08c379a000000000000000000000000000000000000000000000000000000000815260040161127d90613180565b60405180910390fd5b565b6000600b60009054906101000a900473ffffffffffffffffffffffffffffffffffffffff16905081600b60006101000a81548173ffffffffffffffffffffffffffffffffffffffff021916908373ffffffffffffffffffffffffffffffffffffffff1602179055508173ffffffffffffffffffffffffffffffffffffffff168173ffffffffffffffffffffffffffffffffffffffff167f8be0079c531659141344cd1fd0a4f28419497f9722a3daafe3b4186f6b6457e060405160405180910390a35050565b8173ffffffffffffffffffffffffffffffffffffffff168373ffffffffffffffffffffffffffffffffffffffff16036113bc576040517f08c379a00000000000000000000000000000000000000000000000000000000081526004016113b3906131ec565b60405180910390fd5b80600560008573ffffffffffffffffffffffffffffffffffffffff1673ffffffffffffffffffffffffffffffffffffffff16815260200190815260200160002060008473ffffffffffffffffffffffffffffffffffffffff1673ffffffffffffffffffffffffffffffffffffffff16815260200190815260200160002060006101000a81548160ff0219169083151502179055508173ffffffffffffffffffffffffffffffffffffffff168373ffffffffffffffffffffffffffffffffffffffff167f17307eab39ab6107e8899845ad3d59bd9653f200f220920489ca2b5937696c31836040516114ad91906123d8565b60405180910390a3505050565b6001816000016000828254019250508190555050565b600081600001549050919050565b6114f88282604051806020016040528060008152506118e0565b5050565b611505826117b9565b611544576040517f08c379a000000000000000000000000000000000000000000000000000000000815260040161153b9061327e565b60405180910390fd5b80600a60008481526020019081526020016000209081611564919061344a565b505050565b611574848484610fa4565b6115808484848461193b565b6115bf576040517f08c379a00000000000000000000000000000000000000000000000000000000081526004016115b69061358e565b60405180910390fd5b50505050565b60606115d082610e03565b6000600a600084815260200190815260200160002080546115f090612a1d565b80601f016020809104026020016040519081016040528092919081815260200182805461161c90612a1d565b80156116695780601f1061163e57610100808354040283529160200191611669565b820191906000526020600020905b81548152906001019060200180831161164c57829003601f168201915b50505050509050600061167a611ac2565b9050600081510361168f5781925050506116d2565b6000825111156116c45780826040516020016116ac9291906135ea565b604051602081830303815290604052925050506116d2565b6116cd84611ad9565b925050505b919050565b60007f80ac58cd000000000000000000000000000000000000000000000000000000007bffffffffffffffffffffffffffffffffffffffffffffffffffffffff1916827bffffffffffffffffffffffffffffffffffffffffffffffffffffffff191614806117a257507f5b5e139f000000000000000000000000000000000000000000000000000000007bffffffffffffffffffffffffffffffffffffffffffffffffffffffff1916827bffffffffffffffffffffffffffffffffffffffffffffffffffffffff1916145b806117b257506117b182611b41565b5b9050919050565b60008073ffffffffffffffffffffffffffffffffffffffff166002600084815260200190815260200160002060009054906101000a900473ffffffffffffffffffffffffffffffffffffffff1673ffffffffffffffffffffffffffffffffffffffff1614159050919050565b600073ffffffffffffffffffffffffffffffffffffffff168373ffffffffffffffffffffffffffffffffffffffff16148061188c5750600073ffffffffffffffffffffffffffffffffffffffff168273ffffffffffffffffffffffffffffffffffffffff16145b6118cb576040517f08c379a00000000000000000000000000000000000000000000000000000000081526004016118c290613680565b60405180910390fd5b6118d6838383611bab565b505050565b505050565b6118ea8383611cbd565b6118f7600084848461193b565b611936576040517f08c379a000000000000000000000000000000000000000000000000000000000815260040161192d9061358e565b60405180910390fd5b505050565b600061195c8473ffffffffffffffffffffffffffffffffffffffff16611e96565b15611ab5578373ffffffffffffffffffffffffffffffffffffffff1663150b7a02611985610e4e565b8786866040518563ffffffff1660e01b81526004016119a794939291906136f5565b6020604051808303816000875af19250505080156119e357506040513d601f19601f820116820180604052508101906119e09190613756565b60015b611a65573d8060008114611a13576040519150601f19603f3d011682016040523d82523d6000602084013e611a18565b606091505b506000815103611a5d576040517f08c379a0000000000000000000000000000000000000000000000000000000008152600401611a549061358e565b60405180910390fd5b805181602001fd5b63150b7a0260e01b7bffffffffffffffffffffffffffffffffffffffffffffffffffffffff1916817bffffffffffffffffffffffffffffffffffffffffffffffffffffffff191614915050611aba565b600190505b949350505050565b606060405180602001604052806000815250905090565b6060611ae482610e03565b6000611aee611ac2565b90506000815111611b0e5760405180602001604052806000815250611b39565b80611b1884611eb9565b604051602001611b299291906135ea565b6040516020818303038152906040525b915050919050565b60007f01ffc9a7000000000000000000000000000000000000000000000000000000007bffffffffffffffffffffffffffffffffffffffffffffffffffffffff1916827bffffffffffffffffffffffffffffffffffffffffffffffffffffffff1916149050919050565b611bb6838383612019565b600073ffffffffffffffffffffffffffffffffffffffff168373ffffffffffffffffffffffffffffffffffffffff1603611bf857611bf38161201e565b611c37565b8173ffffffffffffffffffffffffffffffffffffffff168373ffffffffffffffffffffffffffffffffffffffff1614611c3657611c358382612067565b5b5b600073ffffffffffffffffffffffffffffffffffffffff168273ffffffffffffffffffffffffffffffffffffffff1603611c7957611c74816121d4565b611cb8565b8273ffffffffffffffffffffffffffffffffffffffff168273ffffffffffffffffffffffffffffffffffffffff1614611cb757611cb682826122a5565b5b5b505050565b600073ffffffffffffffffffffffffffffffffffffffff168273ffffffffffffffffffffffffffffffffffffffff1603611d2c576040517f08c379a0000000000000000000000000000000000000000000000000000000008152600401611d23906137cf565b60405180910390fd5b611d35816117b9565b15611d75576040517f08c379a0000000000000000000000000000000000000000000000000000000008152600401611d6c9061383b565b60405180910390fd5b611d8160008383611825565b6001600360008473ffffffffffffffffffffffffffffffffffffffff1673ffffffffffffffffffffffffffffffffffffffff1681526020019081526020016000206000828254611dd19190613100565b92505081905550816002600083815260200190815260200160002060006101000a81548173ffffffffffffffffffffffffffffffffffffffff021916908373ffffffffffffffffffffffffffffffffffffffff160217905550808273ffffffffffffffffffffffffffffffffffffffff16600073ffffffffffffffffffffffffffffffffffffffff167fddf252ad1be2c89b69c2b068fc378daa952ba7f163c4a11628f55a4df523b3ef60405160405180910390a4611e92600083836118db565b5050565b6000808273ffffffffffffffffffffffffffffffffffffffff163b119050919050565b606060008203611f00576040518060400160405280600181526020017f30000000000000000000000000000000000000000000000000000000000000008152509050612014565b600082905060005b60008214611f32578080611f1b9061385b565b915050600a82611f2b91906138d2565b9150611f08565b60008167ffffffffffffffff811115611f4e57611f4d6126f0565b5b6040519080825280601f01601f191660200182016040528015611f805781602001600182028036833780820191505090505b5090505b6000851461200d57600182611f9991906130cc565b9150600a85611fa89190613903565b6030611fb49190613100565b60f81b818381518110611fca57611fc9612d28565b5b60200101907effffffffffffffffffffffffffffffffffffffffffffffffffffffffffffff1916908160001a905350600a8561200691906138d2565b9450611f84565b8093505050505b919050565b505050565b6008805490506009600083815260200190815260200160002081905550600881908060018154018082558091505060019003906000526020600020016000909190919091505550565b60006001612074846108ca565b61207e91906130cc565b9050600060076000848152602001908152602001600020549050818114612163576000600660008673ffffffffffffffffffffffffffffffffffffffff1673ffffffffffffffffffffffffffffffffffffffff168152602001908152602001600020600084815260200190815260200160002054905080600660008773ffffffffffffffffffffffffffffffffffffffff1673ffffffffffffffffffffffffffffffffffffffff168152602001908152602001600020600084815260200190815260200160002081905550816007600083815260200190815260200160002081905550505b6007600084815260200190815260200160002060009055600660008573ffffffffffffffffffffffffffffffffffffffff1673ffffffffffffffffffffffffffffffffffffffff16815260200190815260200160002060008381526020019081526020016000206000905550505050565b600060016008805490506121e891906130cc565b905060006009600084815260200190815260200160002054905060006008838154811061221857612217612d28565b5b90600052602060002001549050806008838154811061223a57612239612d28565b5b90600052602060002001819055508160096000838152602001908152602001600020819055506009600085815260200190815260200160002060009055600880548061228957612288613934565b5b6001900381819060005260206000200160009055905550505050565b60006122b0836108ca565b905081600660008573ffffffffffffffffffffffffffffffffffffffff1673ffffffffffffffffffffffffffffffffffffffff168152602001908152602001600020600083815260200190815260200160002081905550806007600084815260200190815260200160002081905550505050565b6000604051905090565b600080fd5b600080fd5b60007fffffffff0000000000000000000000000000000000000000000000000000000082169050919050565b61236d81612338565b811461237857600080fd5b50565b60008135905061238a81612364565b92915050565b6000602082840312156123a6576123a561232e565b5b60006123b48482850161237b565b91505092915050565b60008115159050919050565b6123d2816123bd565b82525050565b60006020820190506123ed60008301846123c9565b92915050565b600081519050919050565b600082825260208201905092915050565b60005b8381101561242d578082015181840152602081019050612412565b60008484015250505050565b6000601f19601f8301169050919050565b6000612455826123f3565b61245f81856123fe565b935061246f81856020860161240f565b61247881612439565b840191505092915050565b6000602082019050818103600083015261249d818461244a565b905092915050565b6000819050919050565b6124b8816124a5565b81146124c357600080fd5b50565b6000813590506124d5816124af565b92915050565b6000602082840312156124f1576124f061232e565b5b60006124ff848285016124c6565b91505092915050565b600073ffffffffffffffffffffffffffffffffffffffff82169050919050565b600061253382612508565b9050919050565b61254381612528565b82525050565b600060208201905061255e600083018461253a565b92915050565b61256d81612528565b811461257857600080fd5b50565b60008135905061258a81612564565b92915050565b600080604083850312156125a7576125a661232e565b5b60006125b58582860161257b565b92505060206125c6858286016124c6565b9150509250929050565b6125d9816124a5565b82525050565b60006020820190506125f460008301846125d0565b92915050565b6000806000606084860312156126135761261261232e565b5b60006126218682870161257b565b93505060206126328682870161257b565b9250506040612643868287016124c6565b9150509250925092565b6000602082840312156126635761266261232e565b5b60006126718482850161257b565b91505092915050565b612683816123bd565b811461268e57600080fd5b50565b6000813590506126a08161267a565b92915050565b600080604083850312156126bd576126bc61232e565b5b60006126cb8582860161257b565b92505060206126dc85828601612691565b9150509250929050565b600080fd5b600080fd5b7f4e487b7100000000000000000000000000000000000000000000000000000000600052604160045260246000fd5b61272882612439565b810181811067ffffffffffffffff82111715612747576127466126f0565b5b80604052505050565b600061275a612324565b9050612766828261271f565b919050565b600067ffffffffffffffff821115612786576127856126f0565b5b61278f82612439565b9050602081019050919050565b82818337600083830152505050565b60006127be6127b98461276b565b612750565b9050828152602081018484840111156127da576127d96126eb565b5b6127e584828561279c565b509392505050565b600082601f830112612802576128016126e6565b5b81356128128482602086016127ab565b91505092915050565b6000806000606084860312156128345761283361232e565b5b60006128428682870161257b565b9350506020612853868287016124c6565b925050604084013567ffffffffffffffff81111561287457612873612333565b5b612880868287016127ed565b9150509250925092565b600067ffffffffffffffff8211156128a5576128a46126f0565b5b6128ae82612439565b9050602081019050919050565b60006128ce6128c98461288a565b612750565b9050828152602081018484840111156128ea576128e96126eb565b5b6128f584828561279c565b509392505050565b600082601f830112612912576129116126e6565b5b81356129228482602086016128bb565b91505092915050565b600080600080608085870312156129455761294461232e565b5b60006129538782880161257b565b94505060206129648782880161257b565b9350506040612975878288016124c6565b925050606085013567ffffffffffffffff81111561299657612995612333565b5b6129a2878288016128fd565b91505092959194509250565b600080604083850312156129c5576129c461232e565b5b60006129d38582860161257b565b92505060206129e48582860161257b565b9150509250929050565b7f4e487b7100000000000000000000000000000000000000000000000000000000600052602260045260246000fd5b60006002820490506001821680612a3557607f821691505b602082108103612a4857612a476129ee565b5b50919050565b7f4552433732313a20617070726f76616c20746f2063757272656e74206f776e6560008201527f7200000000000000000000000000000000000000000000000000000000000000602082015250565b6000612aaa6021836123fe565b9150612ab582612a4e565b604082019050919050565b60006020820190508181036000830152612ad981612a9d565b9050919050565b7f4552433732313a20617070726f76652063616c6c6572206973206e6f7420746f60008201527f6b656e206f776e6572206e6f7220617070726f76656420666f7220616c6c0000602082015250565b6000612b3c603e836123fe565b9150612b4782612ae0565b604082019050919050565b60006020820190508181036000830152612b6b81612b2f565b9050919050565b7f4552433732313a2063616c6c6572206973206e6f7420746f6b656e206f776e6560008201527f72206e6f7220617070726f766564000000000000000000000000000000000000602082015250565b6000612bce602e836123fe565b9150612bd982612b72565b604082019050919050565b60006020820190508181036000830152612bfd81612bc1565b9050919050565b7f455243373231456e756d657261626c653a206f776e657220696e646578206f7560008201527f74206f6620626f756e6473000000000000000000000000000000000000000000602082015250565b6000612c60602b836123fe565b9150612c6b82612c04565b604082019050919050565b60006020820190508181036000830152612c8f81612c53565b9050919050565b7f455243373231456e756d657261626c653a20676c6f62616c20696e646578206f60008201527f7574206f6620626f756e64730000000000000000000000000000000000000000602082015250565b6000612cf2602c836123fe565b9150612cfd82612c96565b604082019050919050565b60006020820190508181036000830152612d2181612ce5565b9050919050565b7f4e487b7100000000000000000000000000000000000000000000000000000000600052603260045260246000fd5b7f4552433732313a20696e76616c696420746f6b656e2049440000000000000000600082015250565b6000612d8d6018836123fe565b9150612d9882612d57565b602082019050919050565b60006020820190508181036000830152612dbc81612d80565b9050919050565b7f4552433732313a2061646472657373207a65726f206973206e6f74206120766160008201527f6c6964206f776e65720000000000000000000000000000000000000000000000602082015250565b6000612e1f6029836123fe565b9150612e2a82612dc3565b604082019050919050565b60006020820190508181036000830152612e4e81612e12565b9050919050565b7f436572746966696361746520616c72656164792069737375656420666f72207460008201527f68697320636f7572736500000000000000000000000000000000000000000000602082015250565b6000612eb1602a836123fe565b9150612ebc82612e55565b604082019050919050565b60006020820190508181036000830152612ee081612ea4565b9050919050565b7f4f776e61626c653a206e6577206f776e657220697320746865207a65726f206160008201527f6464726573730000000000000000000000000000000000000000000000000000602082015250565b6000612f436026836123fe565b9150612f4e82612ee7565b604082019050919050565b60006020820190508181036000830152612f7281612f36565b9050919050565b7f4552433732313a207472616e736665722066726f6d20696e636f72726563742060008201527f6f776e6572000000000000000000000000000000000000000000000000000000602082015250565b6000612fd56025836123fe565b9150612fe082612f79565b604082019050919050565b6000602082019050818103600083015261300481612fc8565b9050919050565b7f4552433732313a207472616e7366657220746f20746865207a65726f2061646460008201527f7265737300000000000000000000000000000000000000000000000000000000602082015250565b60006130676024836123fe565b91506130728261300b565b604082019050919050565b600060208201905081810360008301526130968161305a565b9050919050565b7f4e487b7100000000000000000000000000000000000000000000000000000000600052601160045260246000fd5b60006130d7826124a5565b91506130e2836124a5565b92508282039050818111156130fa576130f961309d565b5b92915050565b600061310b826124a5565b9150613116836124a5565b925082820190508082111561312e5761312d61309d565b5b92915050565b7f4f776e61626c653a2063616c6c6572206973206e6f7420746865206f776e6572600082015250565b600061316a6020836123fe565b915061317582613134565b602082019050919050565b600060208201905081810360008301526131998161315d565b9050919050565b7f4552433732313a20617070726f766520746f2063616c6c657200000000000000600082015250565b60006131d66019836123fe565b91506131e1826131a0565b602082019050919050565b60006020820190508181036000830152613205816131c9565b9050919050565b7f45524337323155524953746f726167653a2055524920736574206f66206e6f6e60008201527f6578697374656e7420746f6b656e000000000000000000000000000000000000602082015250565b6000613268602e836123fe565b91506132738261320c565b604082019050919050565b600060208201905081810360008301526132978161325b565b9050919050565b60008190508160005260206000209050919050565b60006020601f8301049050919050565b600082821b905092915050565b6000600883026133007fffffffffffffffffffffffffffffffffffffffffffffffffffffffffffffffff826132c3565b61330a86836132c3565b95508019841693508086168417925050509392505050565b6000819050919050565b600061334761334261333d846124a5565b613322565b6124a5565b9050919050565b6000819050919050565b6133618361332c565b61337561336d8261334e565b8484546132d0565b825550505050565b600090565b61338a61337d565b613395818484613358565b505050565b5b818110156133b9576133ae600082613382565b60018101905061339b565b5050565b601f8211156133fe576133cf8161329e565b6133d8846132b3565b810160208510156133e7578190505b6133fb6133f3856132b3565b83018261339a565b50505b505050565b600082821c905092915050565b600061342160001984600802613403565b1980831691505092915050565b600061343a8383613410565b9150826002028217905092915050565b613453826123f3565b67ffffffffffffffff81111561346c5761346b6126f0565b5b6134768254612a1d565b6134818282856133bd565b600060209050601f8311600181146134b457600084156134a2578287015190505b6134ac858261342e565b865550613514565b601f1984166134c28661329e565b60005b828110156134ea578489015182556001820191506020850194506020810190506134c5565b868310156135075784890151613503601f891682613410565b8355505b6001600288020188555050505b505050505050565b7f4552433732313a207472616e7366657220746f206e6f6e20455243373231526560008201527f63656976657220696d706c656d656e7465720000000000000000000000000000602082015250565b60006135786032836123fe565b91506135838261351c565b604082019050919050565b600060208201905081810360008301526135a78161356b565b9050919050565b600081905092915050565b60006135c4826123f3565b6135ce81856135ae565b93506135de81856020860161240f565b80840191505092915050565b60006135f682856135b9565b915061360282846135b9565b91508190509392505050565b7f43657274696669636174657320617265206e6f6e2d7472616e7366657261626c60008201527f6500000000000000000000000000000000000000000000000000000000000000602082015250565b600061366a6021836123fe565b91506136758261360e565b604082019050919050565b600060208201905081810360008301526136998161365d565b9050919050565b600081519050919050565b600082825260208201905092915050565b60006136c7826136a0565b6136d181856136ab565b93506136e181856020860161240f565b6136ea81612439565b840191505092915050565b600060808201905061370a600083018761253a565b613717602083018661253a565b61372460408301856125d0565b818103606083015261373681846136bc565b905095945050505050565b60008151905061375081612364565b92915050565b60006020828403121561376c5761376b61232e565b5b600061377a84828501613741565b91505092915050565b7f4552433732313a206d696e7420746f20746865207a65726f2061646472657373600082015250565b60006137b96020836123fe565b91506137c482613783565b602082019050919050565b600060208201905081810360008301526137e8816137ac565b9050919050565b7f4552433732313a20746f6b656e20616c7265616479206d696e74656400000000600082015250565b6000613825601c836123fe565b9150613830826137ef565b602082019050919050565b6000602082019050818103600083015261385481613818565b9050919050565b6000613866826124a5565b91507fffffffffffffffffffffffffffffffffffffffffffffffffffffffffffffffff82036138985761389761309d565b5b600182019050919050565b7f4e487b7100000000000000000000000000000000000000000000000000000000600052601260045260246000fd5b60006138dd826124a5565b91506138e8836124a5565b9250826138f8576138f76138a3565b5b828204905092915050565b600061390e826124a5565b9150613919836124a5565b925082613929576139286138a3565b5b828206905092915050565b7f4e487b7100000000000000000000000000000000000000000000000000000000600052603160045260246000fdfea26469706673582212204fd53ef9a875ebd3f68467f8f26ad0939bb9cafb075ca27238e97ecc34d784df64736f6c63430008120033",
  "linkReferences": {},
  "deployedLinkReferences": {}
}