{
  "_format": "hh-sol-artifact-1",
  "contractName": "AccessKey",
  "sourceName": "contracts/AccessKey.sol",
  "abi": [
    {
      "inputs": [],
      "stateMutability": "nonpayable",
      "type": "constructor"
    },
    {
      "anonymous": false,
      "inputs": [
        {
          "indexed": true,
          "internalType": "address",
          "name": "owner",
          "type": "address"
        },
        {
          "indexed": true,
          "internalType": "address",
          "name": "approved",
          "type": "address"
        },
        {
          "indexed": true,
          "internalType": "uint256",
          "name": "tokenId",
          "type": "uint256"
        }
      ],
      "name": "Approval",
      "type": "event"
    },
    {
      "anonymous": false,
      "inputs": [
        {
          "indexed": true,
          "internalType": "address",
          "name": "owner",
          "type": "address"
        },
        {
          "indexed": true,
          "internalType": "address",
          "name": "operator",
          "type": "address"
        },
        {
          "indexed": false,
          "internalType": "bool",
          "name": "approved",
          "type": "bool"
        }
      ],
      "name": "ApprovalForAll",
      "type": "event"
    },
    {
      "anonymous": false,
      "inputs": [
        {
          "indexed": true,
          "internalType": "address",
          "name": "from",
          "type": "address"
        },
        {
          "indexed": true,
          "internalType": "address",
          "name": "to",
          "type": "address"
        },
        {
          "indexed": true,
          "internalType": "uint256",
          "name": "tokenId",
          "type": "uint256"
        }
      ],
      "name": "Transfer",
      "type": "event"
    },
    {
      "inputs": [
        {
          "internalType": "address",
          "name": "to",
          "type": "address"
        },
        {
          "internalType": "uint256",
          "name": "tokenId",
          "type": "uint256"
        }
      ],
      "name": "approve",
      "outputs": [],
      "stateMutability": "nonpayable",
      "type": "function"
    },
    {
      "inputs": [
        {
          "internalType": "address",
          "name": "owner",
          "type": "address"
        }
      ],
      "name": "balanceOf",
      "outputs": [
        {
          "internalType": "uint256",
          "name": "",
          "type": "uint256"
        }
      ],
      "stateMutability": "view",
      "type": "function"
    },
    {
      "inputs": [
        {
          "internalType": "uint256",
          "name": "tokenId",
          "type": "uint256"
        }
      ],
      "name": "getAccessURI",
      "outputs": [
        {
          "internalType": "string",
          "name": "",
          "type": "string"
        }
      ],
      "stateMutability": "view",
      "type": "function"
    },
    {
      "inputs": [
        {
          "internalType": "uint256",
          "name": "tokenId",
          "type": "uint256"
        }
      ],
      "name": "getApproved",
      "outputs": [
        {
          "internalType": "address",
          "name": "",
          "type": "address"
        }
      ],
      "stateMutability": "view",
      "type": "function"
    },
    {
      "inputs": [
        {
          "internalType": "address",
          "name": "owner",
          "type": "address"
        },
        {
          "internalType": "address",
          "name": "operator",
          "type": "address"
        }
      ],
      "name": "isApprovedForAll",
      "outputs": [
        {
          "internalType": "bool",
          "name": "",
          "type": "bool"
        }
      ],
      "stateMutability": "view",
      "type": "function"
    },
    {
      "inputs": [
        {
          "internalType": "address",
          "name": "to",
          "type": "address"
        },
        {
          "internalType": "uint256",
          "name": "tokenId",
          "type": "uint256"
        },
        {
          "internalType": "string",
          "name": "accessURI",
          "type": "string"
        }
      ],
      "name": "mintAccessKey",
      "outputs": [],
      "stateMutability": "nonpayable",
      "type": "function"
    },
    {
      "inputs": [],
      "name": "name",
      "outputs": [
        {
          "internalType": "string",
          "name": "",
          "type": "string"
        }
      ],
      "stateMutability": "view",
      "type": "function"
    },
    {
      "inputs": [
        {
          "internalType": "uint256",
          "name": "tokenId",
          "type": "uint256"
        }
      ],
      "name": "ownerOf",
      "outputs": [
        {
          "internalType": "address",
          "name": "",
          "type": "address"
        }
      ],
      "stateMutability": "view",
      "type": "function"
    },
    {
      "inputs": [
        {
          "internalType": "address",
          "name": "from",
          "type": "address"
        },
        {
          "internalType": "address",
          "name": "to",
          "type": "address"
        },
        {
          "internalType": "uint256",
          "name": "tokenId",
          "type": "uint256"
        }
      ],
      "name": "safeTransferFrom",
      "outputs": [],
      "stateMutability": "nonpayable",
      "type": "function"
    },
    {
      "inputs": [
        {
          "internalType": "address",
          "name": "from",
          "type": "address"
        },
        {
          "internalType": "address",
          "name": "to",
          "type": "address"
        },
        {
          "internalType": "uint256",
          "name": "tokenId",
          "type": "uint256"
        },
        {
          "internalType": "bytes",
          "name": "data",
          "type": "bytes"
        }
      ],
      "name": "safeTransferFrom",
      "outputs": [],
      "stateMutability": "nonpayable",
      "type": "function"
    },
    {
      "inputs": [
        {
          "internalType": "address",
          "name": "operator",
          "type": "address"
        },
        {
          "internalType": "bool",
          "name": "approved",
          "type": "bool"
        }
      ],
      "name": "setApprovalForAll",
      "outputs": [],
      "stateMutability": "nonpayable",
      "type": "function"
    },
    {
      "inputs": [
        {
          "internalType": "bytes4",
          "name": "interfaceId",
          "type": "bytes4"
        }
      ],
      "name": "supportsInterface",
      "outputs": [
        {
          "internalType": "bool",
          "name": "",
          "type": "bool"
        }
      ],
      "stateMutability": "view",
      "type": "function"
    },
    {
      "inputs": [],
      "name": "symbol",
      "outputs": [
        {
          "internalType": "string",
          "name": "",
          "type": "string"
        }
      ],
      "stateMutability": "view",
      "type": "function"
    },
    {
      "inputs": [
        {
          "internalType": "uint256",
          "name": "index",
          "type": "uint256"
        }
      ],
      "name": "tokenByIndex",
      "outputs": [
        {
          "internalType": "uint256",
          "name": "",
          "type": "uint256"
        }
      ],
      "stateMutability": "view",
      "type": "function"
    },
    {
      "inputs": [
        {
          "internalType": "address",
          "name": "owner",
          "type": "address"
        },
        {
          "internalType": "uint256",
          "name": "index",
          "type": "uint256"
        }
      ],
      "name": "tokenOfOwnerByIndex",
      "outputs": [
        {
          "internalType": "uint256",
          "name": "",
          "type": "uint256"
        }
      ],
      "stateMutability": "view",
      "type": "function"
    },
    {
      "inputs": [
        {
          "internalType": "uint256",
          "name": "tokenId",
          "type": "uint256"
        }
      ],
      "name": "tokenURI",
      "outputs": [
        {
          "internalType": "string",
          "name": "",
          "type": "string"
        }
      ],
      "stateMutability": "view",
      "type": "function"
    },
    {
      "inputs": [],
      "name": "totalSupply",
      "outputs": [
        {
          "internalType": "uint256",
          "name": "",
          "type": "uint256"
        }
      ],
      "stateMutability": "view",
      "type": "function"
    },
    {
      "inputs": [
        {
          "internalType": "address",
          "name": "from",
          "type": "address"
        },
        {
          "internalType": "address",
          "name": "to",
          "type": "address"
        },
        {
          "internalType": "uint256",
          "name": "tokenId",
          "type": "uint256"
        }
      ],
      "name": "transferFrom",
      "outputs": [],
      "stateMutability": "nonpayable",
      "type": "function"
    }
  ],
  "bytecode": "0x60806040523480156200001157600080fd5b506040518060400160405280600981526020017f4163636573734b657900000000000000000000000000000000000000000000008152506040518060400160405280600381526020017f414b59000000000000000000000000000000000000000000000000000000000081525081600090816200008f919062000324565b508060019081620000a1919062000324565b5050506200040b565b600081519050919050565b7f4e487b7100000000000000000000000000000000000000000000000000000000600052604160045260246000fd5b7f4e487b7100000000000000000000000000000000000000000000000000000000600052602260045260246000fd5b600060028204905060018216806200012c57607f821691505b602082108103620001425762000141620000e4565b5b50919050565b60008190508160005260206000209050919050565b60006020601f8301049050919050565b600082821b905092915050565b600060088302620001ac7fffffffffffffffffffffffffffffffffffffffffffffffffffffffffffffffff826200016d565b620001b886836200016d565b95508019841693508086168417925050509392505050565b6000819050919050565b6000819050919050565b600062000205620001ff620001f984620001d0565b620001da565b620001d0565b9050919050565b6000819050919050565b6200022183620001e4565b6200023962000230826200020c565b8484546200017a565b825550505050565b600090565b6200025062000241565b6200025d81848462000216565b505050565b5b8181101562000285576200027960008262000246565b60018101905062000263565b5050565b601f821115620002d4576200029e8162000148565b620002a9846200015d565b81016020851015620002b9578190505b620002d1620002c8856200015d565b83018262000262565b50505b505050565b600082821c905092915050565b6000620002f960001984600802620002d9565b1980831691505092915050565b6000620003148383620002e6565b9150826002028217905092915050565b6200032f82620000aa565b67ffffffffffffffff8111156200034b576200034a620000b5565b5b62000357825462000113565b6200036482828562000289565b600060209050601f8311600181146200039c576000841562000387578287015190505b62000393858262000306565b86555062000403565b601f198416620003ac8662000148565b60005b82811015620003d657848901518255600182019150602085019450602081019050620003af565b86831015620003f65784890151620003f2601f891682620002e6565b8355505b6001600288020188555050505b505050505050565b613134806200041b6000396000f3fe608060405234801561001057600080fd5b50600436106101165760003560e01c80635cdda2fa116100a2578063a22cb46511610071578063a22cb46514610305578063a2c512cb14610321578063b88d4fde14610351578063c87b56dd1461036d578063e985e9c51461039d57610116565b80635cdda2fa1461026b5780636352211e1461028757806370a08231146102b757806395d89b41146102e757610116565b806318160ddd116100e957806318160ddd146101b557806323b872dd146101d35780632f745c59146101ef57806342842e0e1461021f5780634f6ccce71461023b57610116565b806301ffc9a71461011b57806306fdde031461014b578063081812fc14610169578063095ea7b314610199575b600080fd5b61013560048036038101906101309190611d73565b6103cd565b6040516101429190611dbb565b60405180910390f35b610153610447565b6040516101609190611e66565b60405180910390f35b610183600480360381019061017e9190611ebe565b6104d9565b6040516101909190611f2c565b60405180910390f35b6101b360048036038101906101ae9190611f73565b61051f565b005b6101bd610636565b6040516101ca9190611fc2565b60405180910390f35b6101ed60048036038101906101e89190611fdd565b610643565b005b61020960048036038101906102049190611f73565b6106a3565b6040516102169190611fc2565b60405180910390f35b61023960048036038101906102349190611fdd565b610748565b005b61025560048036038101906102509190611ebe565b610768565b6040516102629190611fc2565b60405180910390f35b61028560048036038101906102809190612165565b6107d9565b005b6102a1600480360381019061029c9190611ebe565b610809565b6040516102ae9190611f2c565b60405180910390f35b6102d160048036038101906102cc91906121d4565b6108ba565b6040516102de9190611fc2565b60405180910390f35b6102ef610971565b6040516102fc9190611e66565b60405180910390f35b61031f600480360381019061031a919061222d565b610a03565b005b61033b60048036038101906103369190611ebe565b610a19565b6040516103489190611e66565b60405180910390f35b61036b6004803603810190610366919061230e565b610b06565b005b61038760048036038101906103829190611ebe565b610b68565b6040516103949190611e66565b60405180910390f35b6103b760048036038101906103b29190612391565b610bd0565b6040516103c49190611dbb565b60405180910390f35b60007f780e9d63000000000000000000000000000000000000000000000000000000007bffffffffffffffffffffffffffffffffffffffffffffffffffffffff1916827bffffffffffffffffffffffffffffffffffffffffffffffffffffffff19161480610440575061043f82610c64565b5b9050919050565b60606000805461045690612400565b80601f016020809104026020016040519081016040528092919081815260200182805461048290612400565b80156104cf5780601f106104a4576101008083540402835291602001916104cf565b820191906000526020600020905b8154815290600101906020018083116104b257829003601f168201915b5050505050905090565b60006104e482610d46565b6004600083815260200190815260200160002060009054906101000a900473ffffffffffffffffffffffffffffffffffffffff169050919050565b600061052a82610809565b90508073ffffffffffffffffffffffffffffffffffffffff168373ffffffffffffffffffffffffffffffffffffffff160361059a576040517f08c379a0000000000000000000000000000000000000000000000000000000008152600401610591906124a3565b60405180910390fd5b8073ffffffffffffffffffffffffffffffffffffffff166105b9610d91565b73ffffffffffffffffffffffffffffffffffffffff1614806105e857506105e7816105e2610d91565b610bd0565b5b610627576040517f08c379a000000000000000000000000000000000000000000000000000000000815260040161061e90612535565b60405180910390fd5b6106318383610d99565b505050565b6000600880549050905090565b61065461064e610d91565b82610e52565b610693576040517f08c379a000000000000000000000000000000000000000000000000000000000815260040161068a906125c7565b60405180910390fd5b61069e838383610ee7565b505050565b60006106ae836108ba565b82106106ef576040517f08c379a00000000000000000000000000000000000000000000000000000000081526004016106e690612659565b60405180910390fd5b600660008473ffffffffffffffffffffffffffffffffffffffff1673ffffffffffffffffffffffffffffffffffffffff168152602001908152602001600020600083815260200190815260200160002054905092915050565b61076383838360405180602001604052806000815250610b06565b505050565b6000610772610636565b82106107b3576040517f08c379a00000000000000000000000000000000000000000000000000000000081526004016107aa906126eb565b60405180910390fd5b600882815481106107c7576107c661270b565b5b90600052602060002001549050919050565b6107e3838361114d565b80600a6000848152602001908152602001600020908161080391906128e6565b50505050565b6000806002600084815260200190815260200160002060009054906101000a900473ffffffffffffffffffffffffffffffffffffffff169050600073ffffffffffffffffffffffffffffffffffffffff168173ffffffffffffffffffffffffffffffffffffffff16036108b1576040517f08c379a00000000000000000000000000000000000000000000000000000000081526004016108a890612a04565b60405180910390fd5b80915050919050565b60008073ffffffffffffffffffffffffffffffffffffffff168273ffffffffffffffffffffffffffffffffffffffff160361092a576040517f08c379a000000000000000000000000000000000000000000000000000000000815260040161092190612a96565b60405180910390fd5b600360008373ffffffffffffffffffffffffffffffffffffffff1673ffffffffffffffffffffffffffffffffffffffff168152602001908152602001600020549050919050565b60606001805461098090612400565b80601f01602080910402602001604051908101604052809291908181526020018280546109ac90612400565b80156109f95780601f106109ce576101008083540402835291602001916109f9565b820191906000526020600020905b8154815290600101906020018083116109dc57829003601f168201915b5050505050905090565b610a15610a0e610d91565b8383611326565b5050565b6060610a2482611492565b610a63576040517f08c379a0000000000000000000000000000000000000000000000000000000008152600401610a5a90612b02565b60405180910390fd5b600a60008381526020019081526020016000208054610a8190612400565b80601f0160208091040260200160405190810160405280929190818152602001828054610aad90612400565b8015610afa5780601f10610acf57610100808354040283529160200191610afa565b820191906000526020600020905b815481529060010190602001808311610add57829003601f168201915b50505050509050919050565b610b17610b11610d91565b83610e52565b610b56576040517f08c379a0000000000000000000000000000000000000000000000000000000008152600401610b4d906125c7565b60405180910390fd5b610b62848484846114fe565b50505050565b6060610b7382610d46565b6000610b7d61155a565b90506000815111610b9d5760405180602001604052806000815250610bc8565b80610ba784611571565b604051602001610bb8929190612b5e565b6040516020818303038152906040525b915050919050565b6000600560008473ffffffffffffffffffffffffffffffffffffffff1673ffffffffffffffffffffffffffffffffffffffff16815260200190815260200160002060008373ffffffffffffffffffffffffffffffffffffffff1673ffffffffffffffffffffffffffffffffffffffff16815260200190815260200160002060009054906101000a900460ff16905092915050565b60007f80ac58cd000000000000000000000000000000000000000000000000000000007bffffffffffffffffffffffffffffffffffffffffffffffffffffffff1916827bffffffffffffffffffffffffffffffffffffffffffffffffffffffff19161480610d2f57507f5b5e139f000000000000000000000000000000000000000000000000000000007bffffffffffffffffffffffffffffffffffffffffffffffffffffffff1916827bffffffffffffffffffffffffffffffffffffffffffffffffffffffff1916145b80610d3f5750610d3e826116d1565b5b9050919050565b610d4f81611492565b610d8e576040517f08c379a0000000000000000000000000000000000000000000000000000000008152600401610d8590612a04565b60405180910390fd5b50565b600033905090565b816004600083815260200190815260200160002060006101000a81548173ffffffffffffffffffffffffffffffffffffffff021916908373ffffffffffffffffffffffffffffffffffffffff160217905550808273ffffffffffffffffffffffffffffffffffffffff16610e0c83610809565b73ffffffffffffffffffffffffffffffffffffffff167f8c5be1e5ebec7d5bd14f71427d1e84f3dd0314c0f7b2291e5b200ac8c7c3b92560405160405180910390a45050565b600080610e5e83610809565b90508073ffffffffffffffffffffffffffffffffffffffff168473ffffffffffffffffffffffffffffffffffffffff161480610ea05750610e9f8185610bd0565b5b80610ede57508373ffffffffffffffffffffffffffffffffffffffff16610ec6846104d9565b73ffffffffffffffffffffffffffffffffffffffff16145b91505092915050565b8273ffffffffffffffffffffffffffffffffffffffff16610f0782610809565b73ffffffffffffffffffffffffffffffffffffffff1614610f5d576040517f08c379a0000000000000000000000000000000000000000000000000000000008152600401610f5490612bf4565b60405180910390fd5b600073ffffffffffffffffffffffffffffffffffffffff168273ffffffffffffffffffffffffffffffffffffffff1603610fcc576040517f08c379a0000000000000000000000000000000000000000000000000000000008152600401610fc390612c86565b60405180910390fd5b610fd783838361173b565b610fe2600082610d99565b6001600360008573ffffffffffffffffffffffffffffffffffffffff1673ffffffffffffffffffffffffffffffffffffffff16815260200190815260200160002060008282546110329190612cd5565b925050819055506001600360008473ffffffffffffffffffffffffffffffffffffffff1673ffffffffffffffffffffffffffffffffffffffff16815260200190815260200160002060008282546110899190612d09565b92505081905550816002600083815260200190815260200160002060006101000a81548173ffffffffffffffffffffffffffffffffffffffff021916908373ffffffffffffffffffffffffffffffffffffffff160217905550808273ffffffffffffffffffffffffffffffffffffffff168473ffffffffffffffffffffffffffffffffffffffff167fddf252ad1be2c89b69c2b068fc378daa952ba7f163c4a11628f55a4df523b3ef60405160405180910390a461114883838361184d565b505050565b600073ffffffffffffffffffffffffffffffffffffffff168273ffffffffffffffffffffffffffffffffffffffff16036111bc576040517f08c379a00000000000000000000000000000000000000000000000000000000081526004016111b390612d89565b60405180910390fd5b6111c581611492565b15611205576040517f08c379a00000000000000000000000000000000000000000000000000000000081526004016111fc90612df5565b60405180910390fd5b6112116000838361173b565b6001600360008473ffffffffffffffffffffffffffffffffffffffff1673ffffffffffffffffffffffffffffffffffffffff16815260200190815260200160002060008282546112619190612d09565b92505081905550816002600083815260200190815260200160002060006101000a81548173ffffffffffffffffffffffffffffffffffffffff021916908373ffffffffffffffffffffffffffffffffffffffff160217905550808273ffffffffffffffffffffffffffffffffffffffff16600073ffffffffffffffffffffffffffffffffffffffff167fddf252ad1be2c89b69c2b068fc378daa952ba7f163c4a11628f55a4df523b3ef60405160405180910390a46113226000838361184d565b5050565b8173ffffffffffffffffffffffffffffffffffffffff168373ffffffffffffffffffffffffffffffffffffffff1603611394576040517f08c379a000000000000000000000000000000000000000000000000000000000815260040161138b90612e61565b60405180910390fd5b80600560008573ffffffffffffffffffffffffffffffffffffffff1673ffffffffffffffffffffffffffffffffffffffff16815260200190815260200160002060008473ffffffffffffffffffffffffffffffffffffffff1673ffffffffffffffffffffffffffffffffffffffff16815260200190815260200160002060006101000a81548160ff0219169083151502179055508173ffffffffffffffffffffffffffffffffffffffff168373ffffffffffffffffffffffffffffffffffffffff167f17307eab39ab6107e8899845ad3d59bd9653f200f220920489ca2b5937696c31836040516114859190611dbb565b60405180910390a3505050565b60008073ffffffffffffffffffffffffffffffffffffffff166002600084815260200190815260200160002060009054906101000a900473ffffffffffffffffffffffffffffffffffffffff1673ffffffffffffffffffffffffffffffffffffffff1614159050919050565b611509848484610ee7565b61151584848484611852565b611554576040517f08c379a000000000000000000000000000000000000000000000000000000000815260040161154b90612ef3565b60405180910390fd5b50505050565b606060405180602001604052806000815250905090565b6060600082036115b8576040518060400160405280600181526020017f300000000000000000000000000000000000000000000000000000000000000081525090506116cc565b600082905060005b600082146115ea5780806115d390612f13565b915050600a826115e39190612f8a565b91506115c0565b60008167ffffffffffffffff8111156116065761160561203a565b5b6040519080825280601f01601f1916602001820160405280156116385781602001600182028036833780820191505090505b5090505b600085146116c5576001826116519190612cd5565b9150600a856116609190612fbb565b603061166c9190612d09565b60f81b8183815181106116825761168161270b565b5b60200101907effffffffffffffffffffffffffffffffffffffffffffffffffffffffffffff1916908160001a905350600a856116be9190612f8a565b945061163c565b8093505050505b919050565b60007f01ffc9a7000000000000000000000000000000000000000000000000000000007bffffffffffffffffffffffffffffffffffffffffffffffffffffffff1916827bffffffffffffffffffffffffffffffffffffffffffffffffffffffff1916149050919050565b6117468383836119d9565b600073ffffffffffffffffffffffffffffffffffffffff168373ffffffffffffffffffffffffffffffffffffffff160361178857611783816119de565b6117c7565b8173ffffffffffffffffffffffffffffffffffffffff168373ffffffffffffffffffffffffffffffffffffffff16146117c6576117c58382611a27565b5b5b600073ffffffffffffffffffffffffffffffffffffffff168273ffffffffffffffffffffffffffffffffffffffff16036118095761180481611b94565b611848565b8273ffffffffffffffffffffffffffffffffffffffff168273ffffffffffffffffffffffffffffffffffffffff1614611847576118468282611c65565b5b5b505050565b505050565b60006118738473ffffffffffffffffffffffffffffffffffffffff16611ce4565b156119cc578373ffffffffffffffffffffffffffffffffffffffff1663150b7a0261189c610d91565b8786866040518563ffffffff1660e01b81526004016118be9493929190613041565b6020604051808303816000875af19250505080156118fa57506040513d601f19601f820116820180604052508101906118f791906130a2565b60015b61197c573d806000811461192a576040519150601f19603f3d011682016040523d82523d6000602084013e61192f565b606091505b506000815103611974576040517f08c379a000000000000000000000000000000000000000000000000000000000815260040161196b90612ef3565b60405180910390fd5b805181602001fd5b63150b7a0260e01b7bffffffffffffffffffffffffffffffffffffffffffffffffffffffff1916817bffffffffffffffffffffffffffffffffffffffffffffffffffffffff1916149150506119d1565b600190505b949350505050565b505050565b6008805490506009600083815260200190815260200160002081905550600881908060018154018082558091505060019003906000526020600020016000909190919091505550565b60006001611a34846108ba565b611a3e9190612cd5565b9050600060076000848152602001908152602001600020549050818114611b23576000600660008673ffffffffffffffffffffffffffffffffffffffff1673ffffffffffffffffffffffffffffffffffffffff168152602001908152602001600020600084815260200190815260200160002054905080600660008773ffffffffffffffffffffffffffffffffffffffff1673ffffffffffffffffffffffffffffffffffffffff168152602001908152602001600020600084815260200190815260200160002081905550816007600083815260200190815260200160002081905550505b6007600084815260200190815260200160002060009055600660008573ffffffffffffffffffffffffffffffffffffffff1673ffffffffffffffffffffffffffffffffffffffff16815260200190815260200160002060008381526020019081526020016000206000905550505050565b60006001600880549050611ba89190612cd5565b9050600060096000848152602001908152602001600020549050600060088381548110611bd857611bd761270b565b5b906000526020600020015490508060088381548110611bfa57611bf961270b565b5b906000526020600020018190555081600960008381526020019081526020016000208190555060096000858152602001908152602001600020600090556008805480611c4957611c486130cf565b5b6001900381819060005260206000200160009055905550505050565b6000611c70836108ba565b905081600660008573ffffffffffffffffffffffffffffffffffffffff1673ffffffffffffffffffffffffffffffffffffffff168152602001908152602001600020600083815260200190815260200160002081905550806007600084815260200190815260200160002081905550505050565b6000808273ffffffffffffffffffffffffffffffffffffffff163b119050919050565b6000604051905090565b600080fd5b600080fd5b60007fffffffff0000000000000000000000000000000000000000000000000000000082169050919050565b611d5081611d1b565b8114611d5b57600080fd5b50565b600081359050611d6d81611d47565b92915050565b600060208284031215611d8957611d88611d11565b5b6000611d9784828501611d5e565b91505092915050565b60008115159050919050565b611db581611da0565b82525050565b6000602082019050611dd06000830184611dac565b92915050565b600081519050919050565b600082825260208201905092915050565b60005b83811015611e10578082015181840152602081019050611df5565b60008484015250505050565b6000601f19601f8301169050919050565b6000611e3882611dd6565b611e428185611de1565b9350611e52818560208601611df2565b611e5b81611e1c565b840191505092915050565b60006020820190508181036000830152611e808184611e2d565b905092915050565b6000819050919050565b611e9b81611e88565b8114611ea657600080fd5b50565b600081359050611eb881611e92565b92915050565b600060208284031215611ed457611ed3611d11565b5b6000611ee284828501611ea9565b91505092915050565b600073ffffffffffffffffffffffffffffffffffffffff82169050919050565b6000611f1682611eeb565b9050919050565b611f2681611f0b565b82525050565b6000602082019050611f416000830184611f1d565b92915050565b611f5081611f0b565b8114611f5b57600080fd5b50565b600081359050611f6d81611f47565b92915050565b60008060408385031215611f8a57611f89611d11565b5b6000611f9885828601611f5e565b9250506020611fa985828601611ea9565b9150509250929050565b611fbc81611e88565b82525050565b6000602082019050611fd76000830184611fb3565b92915050565b600080600060608486031215611ff657611ff5611d11565b5b600061200486828701611f5e565b935050602061201586828701611f5e565b925050604061202686828701611ea9565b9150509250925092565b600080fd5b600080fd5b7f4e487b7100000000000000000000000000000000000000000000000000000000600052604160045260246000fd5b61207282611e1c565b810181811067ffffffffffffffff821117156120915761209061203a565b5b80604052505050565b60006120a4611d07565b90506120b08282612069565b919050565b600067ffffffffffffffff8211156120d0576120cf61203a565b5b6120d982611e1c565b9050602081019050919050565b82818337600083830152505050565b6000612108612103846120b5565b61209a565b90508281526020810184848401111561212457612123612035565b5b61212f8482856120e6565b509392505050565b600082601f83011261214c5761214b612030565b5b813561215c8482602086016120f5565b91505092915050565b60008060006060848603121561217e5761217d611d11565b5b600061218c86828701611f5e565b935050602061219d86828701611ea9565b925050604084013567ffffffffffffffff8111156121be576121bd611d16565b5b6121ca86828701612137565b9150509250925092565b6000602082840312156121ea576121e9611d11565b5b60006121f884828501611f5e565b91505092915050565b61220a81611da0565b811461221557600080fd5b50565b60008135905061222781612201565b92915050565b6000806040838503121561224457612243611d11565b5b600061225285828601611f5e565b925050602061226385828601612218565b9150509250929050565b600067ffffffffffffffff8211156122885761228761203a565b5b61229182611e1c565b9050602081019050919050565b60006122b16122ac8461226d565b61209a565b9050828152602081018484840111156122cd576122cc612035565b5b6122d88482856120e6565b509392505050565b600082601f8301126122f5576122f4612030565b5b813561230584826020860161229e565b91505092915050565b6000806000806080858703121561232857612327611d11565b5b600061233687828801611f5e565b945050602061234787828801611f5e565b935050604061235887828801611ea9565b925050606085013567ffffffffffffffff81111561237957612378611d16565b5b612385878288016122e0565b91505092959194509250565b600080604083850312156123a8576123a7611d11565b5b60006123b685828601611f5e565b92505060206123c785828601611f5e565b9150509250929050565b7f4e487b7100000000000000000000000000000000000000000000000000000000600052602260045260246000fd5b6000600282049050600182168061241857607f821691505b60208210810361242b5761242a6123d1565b5b50919050565b7f4552433732313a20617070726f76616c20746f2063757272656e74206f776e6560008201527f7200000000000000000000000000000000000000000000000000000000000000602082015250565b600061248d602183611de1565b915061249882612431565b604082019050919050565b600060208201905081810360008301526124bc81612480565b9050919050565b7f4552433732313a20617070726f76652063616c6c6572206973206e6f7420746f60008201527f6b656e206f776e6572206e6f7220617070726f76656420666f7220616c6c0000602082015250565b600061251f603e83611de1565b915061252a826124c3565b604082019050919050565b6000602082019050818103600083015261254e81612512565b9050919050565b7f4552433732313a2063616c6c6572206973206e6f7420746f6b656e206f776e6560008201527f72206e6f7220617070726f766564000000000000000000000000000000000000602082015250565b60006125b1602e83611de1565b91506125bc82612555565b604082019050919050565b600060208201905081810360008301526125e0816125a4565b9050919050565b7f455243373231456e756d657261626c653a206f776e657220696e646578206f7560008201527f74206f6620626f756e6473000000000000000000000000000000000000000000602082015250565b6000612643602b83611de1565b915061264e826125e7565b604082019050919050565b6000602082019050818103600083015261267281612636565b9050919050565b7f455243373231456e756d657261626c653a20676c6f62616c20696e646578206f60008201527f7574206f6620626f756e64730000000000000000000000000000000000000000602082015250565b60006126d5602c83611de1565b91506126e082612679565b604082019050919050565b60006020820190508181036000830152612704816126c8565b9050919050565b7f4e487b7100000000000000000000000000000000000000000000000000000000600052603260045260246000fd5b60008190508160005260206000209050919050565b60006020601f8301049050919050565b600082821b905092915050565b60006008830261279c7fffffffffffffffffffffffffffffffffffffffffffffffffffffffffffffffff8261275f565b6127a6868361275f565b95508019841693508086168417925050509392505050565b6000819050919050565b60006127e36127de6127d984611e88565b6127be565b611e88565b9050919050565b6000819050919050565b6127fd836127c8565b612811612809826127ea565b84845461276c565b825550505050565b600090565b612826612819565b6128318184846127f4565b505050565b5b818110156128555761284a60008261281e565b600181019050612837565b5050565b601f82111561289a5761286b8161273a565b6128748461274f565b81016020851015612883578190505b61289761288f8561274f565b830182612836565b50505b505050565b600082821c905092915050565b60006128bd6000198460080261289f565b1980831691505092915050565b60006128d683836128ac565b9150826002028217905092915050565b6128ef82611dd6565b67ffffffffffffffff8111156129085761290761203a565b5b6129128254612400565b61291d828285612859565b600060209050601f831160018114612950576000841561293e578287015190505b61294885826128ca565b8655506129b0565b601f19841661295e8661273a565b60005b8281101561298657848901518255600182019150602085019450602081019050612961565b868310156129a3578489015161299f601f8916826128ac565b8355505b6001600288020188555050505b505050505050565b7f4552433732313a20696e76616c696420746f6b656e2049440000000000000000600082015250565b60006129ee601883611de1565b91506129f9826129b8565b602082019050919050565b60006020820190508181036000830152612a1d816129e1565b9050919050565b7f4552433732313a2061646472657373207a65726f206973206e6f74206120766160008201527f6c6964206f776e65720000000000000000000000000000000000000000000000602082015250565b6000612a80602983611de1565b9150612a8b82612a24565b604082019050919050565b60006020820190508181036000830152612aaf81612a73565b9050919050565b7f546f6b656e20646f6573206e6f74206578697374000000000000000000000000600082015250565b6000612aec601483611de1565b9150612af782612ab6565b602082019050919050565b60006020820190508181036000830152612b1b81612adf565b9050919050565b600081905092915050565b6000612b3882611dd6565b612b428185612b22565b9350612b52818560208601611df2565b80840191505092915050565b6000612b6a8285612b2d565b9150612b768284612b2d565b91508190509392505050565b7f4552433732313a207472616e736665722066726f6d20696e636f72726563742060008201527f6f776e6572000000000000000000000000000000000000000000000000000000602082015250565b6000612bde602583611de1565b9150612be982612b82565b604082019050919050565b60006020820190508181036000830152612c0d81612bd1565b9050919050565b7f4552433732313a207472616e7366657220746f20746865207a65726f2061646460008201527f7265737300000000000000000000000000000000000000000000000000000000602082015250565b6000612c70602483611de1565b9150612c7b82612c14565b604082019050919050565b60006020820190508181036000830152612c9f81612c63565b9050919050565b7f4e487b7100000000000000000000000000000000000000000000000000000000600052601160045260246000fd5b6000612ce082611e88565b9150612ceb83611e88565b9250828203905081811115612d0357612d02612ca6565b5b92915050565b6000612d1482611e88565b9150612d1f83611e88565b9250828201905080821115612d3757612d36612ca6565b5b92915050565b7f4552433732313a206d696e7420746f20746865207a65726f2061646472657373600082015250565b6000612d73602083611de1565b9150612d7e82612d3d565b602082019050919050565b60006020820190508181036000830152612da281612d66565b9050919050565b7f4552433732313a20746f6b656e20616c7265616479206d696e74656400000000600082015250565b6000612ddf601c83611de1565b9150612dea82612da9565b602082019050919050565b60006020820190508181036000830152612e0e81612dd2565b9050919050565b7f4552433732313a20617070726f766520746f2063616c6c657200000000000000600082015250565b6000612e4b601983611de1565b9150612e5682612e15565b602082019050919050565b60006020820190508181036000830152612e7a81612e3e565b9050919050565b7f4552433732313a207472616e7366657220746f206e6f6e20455243373231526560008201527f63656976657220696d706c656d656e7465720000000000000000000000000000602082015250565b6000612edd603283611de1565b9150612ee882612e81565b604082019050919050565b60006020820190508181036000830152612f0c81612ed0565b9050919050565b6000612f1e82611e88565b91507fffffffffffffffffffffffffffffffffffffffffffffffffffffffffffffffff8203612f5057612f4f612ca6565b5b600182019050919050565b7f4e487b7100000000000000000000000000000000000000000000000000000000600052601260045260246000fd5b6000612f9582611e88565b9150612fa083611e88565b925082612fb057612faf612f5b565b5b828204905092915050565b6000612fc682611e88565b9150612fd183611e88565b925082612fe157612fe0612f5b565b5b828206905092915050565b600081519050919050565b600082825260208201905092915050565b600061301382612fec565b61301d8185612ff7565b935061302d818560208601611df2565b61303681611e1c565b840191505092915050565b60006080820190506130566000830187611f1d565b6130636020830186611f1d565b6130706040830185611fb3565b81810360608301526130828184613008565b905095945050505050565b60008151905061309c81611d47565b92915050565b6000602082840312156130b8576130b7611d11565b5b60006130c68482850161308d565b91505092915050565b7f4e487b7100000000000000000000000000000000000000000000000000000000600052603160045260246000fdfea26469706673582212200034c2ddb5f58c4d585ffcf351d9c08dd0e5df1ae4ab27c9a288889d8928c1b964736f6c63430008120033",
  "linkReferences": {},
  "deployedLinkReferences": {}
}