{
  "_format": "hh-sol-artifact-1",
  "contractName": "Marketplace",
  "sourceName": "contracts/Marketplace.sol",
  "abi": [
    {
      "inputs": [
        {
          "internalType": "string",
          "name": "name",
          "type": "string"
        },
        {
          "internalType": "string",
          "name": "symbol",
          "type": "string"
        }
      ],
      "stateMutability": "nonpayable",
      "type": "constructor"
    },
    {
      "anonymous": false,
      "inputs": [
        {
          "indexed": true,
          "internalType": "address",
          "name": "owner",
          "type": "address"
        },
        {
          "indexed": true,
          "internalType": "address",
          "name": "approved",
          "type": "address"
        },
        {
          "indexed": true,
          "internalType": "uint256",
          "name": "tokenId",
          "type": "uint256"
        }
      ],
      "name": "Approval",
      "type": "event"
    },
    {
      "anonymous": false,
      "inputs": [
        {
          "indexed": true,
          "internalType": "address",
          "name": "owner",
          "type": "address"
        },
        {
          "indexed": true,
          "internalType": "address",
          "name": "operator",
          "type": "address"
        },
        {
          "indexed": false,
          "internalType": "bool",
          "name": "approved",
          "type": "bool"
        }
      ],
      "name": "ApprovalForAll",
      "type": "event"
    },
    {
      "anonymous": false,
      "inputs": [
        {
          "indexed": true,
          "internalType": "uint256",
          "name": "courseId",
          "type": "uint256"
        },
        {
          "indexed": false,
          "internalType": "string",
          "name": "uri",
          "type": "string"
        },
        {
          "indexed": false,
          "internalType": "uint256",
          "name": "price",
          "type": "uint256"
        },
        {
          "indexed": false,
          "internalType": "uint256",
          "name": "maxSupply",
          "type": "uint256"
        }
      ],
      "name": "CourseCreated",
      "type": "event"
    },
    {
      "anonymous": false,
      "inputs": [
        {
          "indexed": true,
          "internalType": "uint256",
          "name": "tokenId",
          "type": "uint256"
        },
        {
          "indexed": false,
          "internalType": "uint256",
          "name": "price",
          "type": "uint256"
        },
        {
          "indexed": true,
          "internalType": "address",
          "name": "seller",
          "type": "address"
        }
      ],
      "name": "NFTListedForSale",
      "type": "event"
    },
    {
      "anonymous": false,
      "inputs": [
        {
          "indexed": true,
          "internalType": "uint256",
          "name": "courseId",
          "type": "uint256"
        },
        {
          "indexed": false,
          "internalType": "uint256",
          "name": "tokenId",
          "type": "uint256"
        },
        {
          "indexed": true,
          "internalType": "address",
          "name": "owner",
          "type": "address"
        }
      ],
      "name": "NFTMinted",
      "type": "event"
    },
    {
      "anonymous": false,
      "inputs": [
        {
          "indexed": true,
          "internalType": "uint256",
          "name": "tokenId",
          "type": "uint256"
        },
        {
          "indexed": true,
          "internalType": "address",
          "name": "buyer",
          "type": "address"
        },
        {
          "indexed": true,
          "internalType": "address",
          "name": "seller",
          "type": "address"
        }
      ],
      "name": "NFTSold",
      "type": "event"
    },
    {
      "anonymous": false,
      "inputs": [
        {
          "indexed": true,
          "internalType": "address",
          "name": "previousOwner",
          "type": "address"
        },
        {
          "indexed": true,
          "internalType": "address",
          "name": "newOwner",
          "type": "address"
        }
      ],
      "name": "OwnershipTransferred",
      "type": "event"
    },
    {
      "anonymous": false,
      "inputs": [
        {
          "indexed": true,
          "internalType": "address",
          "name": "from",
          "type": "address"
        },
        {
          "indexed": true,
          "internalType": "address",
          "name": "to",
          "type": "address"
        },
        {
          "indexed": true,
          "internalType": "uint256",
          "name": "tokenId",
          "type": "uint256"
        }
      ],
      "name": "Transfer",
      "type": "event"
    },
    {
      "inputs": [
        {
          "internalType": "address",
          "name": "to",
          "type": "address"
        },
        {
          "internalType": "uint256",
          "name": "tokenId",
          "type": "uint256"
        }
      ],
      "name": "approve",
      "outputs": [],
      "stateMutability": "nonpayable",
      "type": "function"
    },
    {
      "inputs": [
        {
          "internalType": "address",
          "name": "owner",
          "type": "address"
        }
      ],
      "name": "balanceOf",
      "outputs": [
        {
          "internalType": "uint256",
          "name": "",
          "type": "uint256"
        }
      ],
      "stateMutability": "view",
      "type": "function"
    },
    {
      "inputs": [
        {
          "internalType": "uint256",
          "name": "tokenId",
          "type": "uint256"
        }
      ],
      "name": "buyNFT",
      "outputs": [],
      "stateMutability": "payable",
      "type": "function"
    },
    {
      "inputs": [
        {
          "internalType": "uint256",
          "name": "",
          "type": "uint256"
        }
      ],
      "name": "courses",
      "outputs": [
        {
          "internalType": "string",
          "name": "uri",
          "type": "string"
        },
        {
          "internalType": "uint256",
          "name": "price",
          "type": "uint256"
        },
        {
          "internalType": "uint256",
          "name": "maxSupply",
          "type": "uint256"
        },
        {
          "internalType": "uint256",
          "name": "minted",
          "type": "uint256"
        }
      ],
      "stateMutability": "view",
      "type": "function"
    },
    {
      "inputs": [
        {
          "internalType": "string",
          "name": "uri",
          "type": "string"
        },
        {
          "internalType": "uint256",
          "name": "price",
          "type": "uint256"
        },
        {
          "internalType": "uint256",
          "name": "maxSupply",
          "type": "uint256"
        }
      ],
      "name": "createCourse",
      "outputs": [],
      "stateMutability": "nonpayable",
      "type": "function"
    },
    {
      "inputs": [],
      "name": "currentCourseId",
      "outputs": [
        {
          "internalType": "uint256",
          "name": "",
          "type": "uint256"
        }
      ],
      "stateMutability": "view",
      "type": "function"
    },
    {
      "inputs": [],
      "name": "currentTokenId",
      "outputs": [
        {
          "internalType": "uint256",
          "name": "",
          "type": "uint256"
        }
      ],
      "stateMutability": "view",
      "type": "function"
    },
    {
      "inputs": [
        {
          "internalType": "uint256",
          "name": "tokenId",
          "type": "uint256"
        }
      ],
      "name": "getApproved",
      "outputs": [
        {
          "internalType": "address",
          "name": "",
          "type": "address"
        }
      ],
      "stateMutability": "view",
      "type": "function"
    },
    {
      "inputs": [
        {
          "internalType": "uint256",
          "name": "courseId",
          "type": "uint256"
        }
      ],
      "name": "getCourseDetails",
      "outputs": [
        {
          "internalType": "string",
          "name": "",
          "type": "string"
        },
        {
          "internalType": "uint256",
          "name": "",
          "type": "uint256"
        },
        {
          "internalType": "uint256",
          "name": "",
          "type": "uint256"
        },
        {
          "internalType": "uint256",
          "name": "",
          "type": "uint256"
        }
      ],
      "stateMutability": "view",
      "type": "function"
    },
    {
      "inputs": [
        {
          "internalType": "uint256",
          "name": "tokenId",
          "type": "uint256"
        }
      ],
      "name": "getNFTOwner",
      "outputs": [
        {
          "internalType": "address",
          "name": "",
          "type": "address"
        }
      ],
      "stateMutability": "view",
      "type": "function"
    },
    {
      "inputs": [
        {
          "internalType": "uint256",
          "name": "tokenId",
          "type": "uint256"
        }
      ],
      "name": "getNFTSalePrice",
      "outputs": [
        {
          "internalType": "uint256",
          "name": "",
          "type": "uint256"
        }
      ],
      "stateMutability": "view",
      "type": "function"
    },
    {
      "inputs": [
        {
          "internalType": "address",
          "name": "owner",
          "type": "address"
        }
      ],
      "name": "getOwnedNFTs",
      "outputs": [
        {
          "internalType": "uint256[]",
          "name": "",
          "type": "uint256[]"
        }
      ],
      "stateMutability": "view",
      "type": "function"
    },
    {
      "inputs": [
        {
          "internalType": "address",
          "name": "owner",
          "type": "address"
        },
        {
          "internalType": "address",
          "name": "operator",
          "type": "address"
        }
      ],
      "name": "isApprovedForAll",
      "outputs": [
        {
          "internalType": "bool",
          "name": "",
          "type": "bool"
        }
      ],
      "stateMutability": "view",
      "type": "function"
    },
    {
      "inputs": [
        {
          "internalType": "uint256",
          "name": "tokenId",
          "type": "uint256"
        },
        {
          "internalType": "uint256",
          "name": "price",
          "type": "uint256"
        }
      ],
      "name": "listNFTForSale",
      "outputs": [],
      "stateMutability": "nonpayable",
      "type": "function"
    },
    {
      "inputs": [
        {
          "internalType": "uint256",
          "name": "courseId",
          "type": "uint256"
        }
      ],
      "name": "mintCourse",
      "outputs": [],
      "stateMutability": "payable",
      "type": "function"
    },
    {
      "inputs": [],
      "name": "name",
      "outputs": [
        {
          "internalType": "string",
          "name": "",
          "type": "string"
        }
      ],
      "stateMutability": "view",
      "type": "function"
    },
    {
      "inputs": [],
      "name": "owner",
      "outputs": [
        {
          "internalType": "address",
          "name": "",
          "type": "address"
        }
      ],
      "stateMutability": "view",
      "type": "function"
    },
    {
      "inputs": [
        {
          "internalType": "uint256",
          "name": "tokenId",
          "type": "uint256"
        }
      ],
      "name": "ownerOf",
      "outputs": [
        {
          "internalType": "address",
          "name": "",
          "type": "address"
        }
      ],
      "stateMutability": "view",
      "type": "function"
    },
    {
      "inputs": [],
      "name": "renounceOwnership",
      "outputs": [],
      "stateMutability": "nonpayable",
      "type": "function"
    },
    {
      "inputs": [
        {
          "internalType": "address",
          "name": "from",
          "type": "address"
        },
        {
          "internalType": "address",
          "name": "to",
          "type": "address"
        },
        {
          "internalType": "uint256",
          "name": "tokenId",
          "type": "uint256"
        }
      ],
      "name": "safeTransferFrom",
      "outputs": [],
      "stateMutability": "nonpayable",
      "type": "function"
    },
    {
      "inputs": [
        {
          "internalType": "address",
          "name": "from",
          "type": "address"
        },
        {
          "internalType": "address",
          "name": "to",
          "type": "address"
        },
        {
          "internalType": "uint256",
          "name": "tokenId",
          "type": "uint256"
        },
        {
          "internalType": "bytes",
          "name": "data",
          "type": "bytes"
        }
      ],
      "name": "safeTransferFrom",
      "outputs": [],
      "stateMutability": "nonpayable",
      "type": "function"
    },
    {
      "inputs": [
        {
          "internalType": "uint256",
          "name": "",
          "type": "uint256"
        }
      ],
      "name": "secondaryMarketPrices",
      "outputs": [
        {
          "internalType": "uint256",
          "name": "",
          "type": "uint256"
        }
      ],
      "stateMutability": "view",
      "type": "function"
    },
    {
      "inputs": [
        {
          "internalType": "uint256",
          "name": "",
          "type": "uint256"
        }
      ],
      "name": "secondaryMarketSellers",
      "outputs": [
        {
          "internalType": "address",
          "name": "",
          "type": "address"
        }
      ],
      "stateMutability": "view",
      "type": "function"
    },
    {
      "inputs": [
        {
          "internalType": "address",
          "name": "operator",
          "type": "address"
        },
        {
          "internalType": "bool",
          "name": "approved",
          "type": "bool"
        }
      ],
      "name": "setApprovalForAll",
      "outputs": [],
      "stateMutability": "nonpayable",
      "type": "function"
    },
    {
      "inputs": [
        {
          "internalType": "bytes4",
          "name": "interfaceId",
          "type": "bytes4"
        }
      ],
      "name": "supportsInterface",
      "outputs": [
        {
          "internalType": "bool",
          "name": "",
          "type": "bool"
        }
      ],
      "stateMutability": "view",
      "type": "function"
    },
    {
      "inputs": [],
      "name": "symbol",
      "outputs": [
        {
          "internalType": "string",
          "name": "",
          "type": "string"
        }
      ],
      "stateMutability": "view",
      "type": "function"
    },
    {
      "inputs": [
        {
          "internalType": "uint256",
          "name": "index",
          "type": "uint256"
        }
      ],
      "name": "tokenByIndex",
      "outputs": [
        {
          "internalType": "uint256",
          "name": "",
          "type": "uint256"
        }
      ],
      "stateMutability": "view",
      "type": "function"
    },
    {
      "inputs": [
        {
          "internalType": "address",
          "name": "owner",
          "type": "address"
        },
        {
          "internalType": "uint256",
          "name": "index",
          "type": "uint256"
        }
      ],
      "name": "tokenOfOwnerByIndex",
      "outputs": [
        {
          "internalType": "uint256",
          "name": "",
          "type": "uint256"
        }
      ],
      "stateMutability": "view",
      "type": "function"
    },
    {
      "inputs": [
        {
          "internalType": "uint256",
          "name": "tokenId",
          "type": "uint256"
        }
      ],
      "name": "tokenURI",
      "outputs": [
        {
          "internalType": "string",
          "name": "",
          "type": "string"
        }
      ],
      "stateMutability": "view",
      "type": "function"
    },
    {
      "inputs": [],
      "name": "totalSupply",
      "outputs": [
        {
          "internalType": "uint256",
          "name": "",
          "type": "uint256"
        }
      ],
      "stateMutability": "view",
      "type": "function"
    },
    {
      "inputs": [
        {
          "internalType": "address",
          "name": "from",
          "type": "address"
        },
        {
          "internalType": "address",
          "name": "to",
          "type": "address"
        },
        {
          "internalType": "uint256",
          "name": "tokenId",
          "type": "uint256"
        }
      ],
      "name": "transferFrom",
      "outputs": [],
      "stateMutability": "nonpayable",
      "type": "function"
    },
    {
      "inputs": [
        {
          "internalType": "address",
          "name": "newOwner",
          "type": "address"
        }
      ],
      "name": "transferOwnership",
      "outputs": [],
      "stateMutability": "nonpayable",
      "type": "function"
    }
  ],
  "bytecode": "0x60806040523480156200001157600080fd5b5060405162005178380380620051788339818101604052810190620000379190620002e8565b818181600090816200004a9190620005b8565b5080600190816200005c9190620005b8565b5050506200007f620000736200008760201b60201c565b6200008f60201b60201c565b50506200069f565b600033905090565b6000600b60009054906101000a900473ffffffffffffffffffffffffffffffffffffffff16905081600b60006101000a81548173ffffffffffffffffffffffffffffffffffffffff021916908373ffffffffffffffffffffffffffffffffffffffff1602179055508173ffffffffffffffffffffffffffffffffffffffff168173ffffffffffffffffffffffffffffffffffffffff167f8be0079c531659141344cd1fd0a4f28419497f9722a3daafe3b4186f6b6457e060405160405180910390a35050565b6000604051905090565b600080fd5b600080fd5b600080fd5b600080fd5b6000601f19601f8301169050919050565b7f4e487b7100000000000000000000000000000000000000000000000000000000600052604160045260246000fd5b620001be8262000173565b810181811067ffffffffffffffff82111715620001e057620001df62000184565b5b80604052505050565b6000620001f562000155565b9050620002038282620001b3565b919050565b600067ffffffffffffffff82111562000226576200022562000184565b5b620002318262000173565b9050602081019050919050565b60005b838110156200025e57808201518184015260208101905062000241565b60008484015250505050565b6000620002816200027b8462000208565b620001e9565b905082815260208101848484011115620002a0576200029f6200016e565b5b620002ad8482856200023e565b509392505050565b600082601f830112620002cd57620002cc62000169565b5b8151620002df8482602086016200026a565b91505092915050565b600080604083850312156200030257620003016200015f565b5b600083015167ffffffffffffffff81111562000323576200032262000164565b5b6200033185828601620002b5565b925050602083015167ffffffffffffffff81111562000355576200035462000164565b5b6200036385828601620002b5565b9150509250929050565b600081519050919050565b7f4e487b7100000000000000000000000000000000000000000000000000000000600052602260045260246000fd5b60006002820490506001821680620003c057607f821691505b602082108103620003d657620003d562000378565b5b50919050565b60008190508160005260206000209050919050565b60006020601f8301049050919050565b600082821b905092915050565b600060088302620004407fffffffffffffffffffffffffffffffffffffffffffffffffffffffffffffffff8262000401565b6200044c868362000401565b95508019841693508086168417925050509392505050565b6000819050919050565b6000819050919050565b600062000499620004936200048d8462000464565b6200046e565b62000464565b9050919050565b6000819050919050565b620004b58362000478565b620004cd620004c482620004a0565b8484546200040e565b825550505050565b600090565b620004e4620004d5565b620004f1818484620004aa565b505050565b5b8181101562000519576200050d600082620004da565b600181019050620004f7565b5050565b601f82111562000568576200053281620003dc565b6200053d84620003f1565b810160208510156200054d578190505b620005656200055c85620003f1565b830182620004f6565b50505b505050565b600082821c905092915050565b60006200058d600019846008026200056d565b1980831691505092915050565b6000620005a883836200057a565b9150826002028217905092915050565b620005c3826200036d565b67ffffffffffffffff811115620005df57620005de62000184565b5b620005eb8254620003a7565b620005f88282856200051d565b600060209050601f8311600181146200063057600084156200061b578287015190505b6200062785826200059a565b86555062000697565b601f1984166200064086620003dc565b60005b828110156200066a5784890151825560018201915060208501945060208101905062000643565b868310156200068a578489015162000686601f8916826200057a565b8355505b6001600288020188555050505b505050505050565b614ac980620006af6000396000f3fe6080604052600436106101e25760003560e01c806370a0823111610102578063b25360df11610095578063deaea2e311610064578063deaea2e31461075a578063e71ef65714610797578063e985e9c5146107b3578063f2fde38b146107f0576101e2565b8063b25360df1461068e578063b2733b39146106cb578063b88d4fde146106f4578063c87b56dd1461071d576101e2565b806395d89b41116100d157806395d89b41146105d157806396f979d2146105fc578063a22cb4651461063c578063ae0ec5e414610665576101e2565b806370a082311461051557806371267f1f14610552578063715018a61461058f5780638da5cb5b146105a6576101e2565b80632f745c591161017a57806350e351811161014957806350e351811461043f57806351ed82881461047c578063610b31a6146104985780636352211e146104d8576101e2565b80632f745c59146103715780632f77f003146103ae57806342842e0e146103d95780634f6ccce714610402576101e2565b8063095ea7b3116101b6578063095ea7b3146102b757806318148f1b146102e057806318160ddd1461031d57806323b872dd14610348576101e2565b80629a9b7b146101e757806301ffc9a71461021257806306fdde031461024f578063081812fc1461027a575b600080fd5b3480156101f357600080fd5b506101fc610819565b6040516102099190612f63565b60405180910390f35b34801561021e57600080fd5b5061023960048036038101906102349190612fea565b61081f565b6040516102469190613032565b60405180910390f35b34801561025b57600080fd5b50610264610831565b60405161027191906130dd565b60405180910390f35b34801561028657600080fd5b506102a1600480360381019061029c919061312b565b6108c3565b6040516102ae9190613199565b60405180910390f35b3480156102c357600080fd5b506102de60048036038101906102d991906131e0565b610909565b005b3480156102ec57600080fd5b5061030760048036038101906103029190613220565b610a20565b604051610314919061330b565b60405180910390f35b34801561032957600080fd5b50610332610ace565b60405161033f9190612f63565b60405180910390f35b34801561035457600080fd5b5061036f600480360381019061036a919061332d565b610adb565b005b34801561037d57600080fd5b50610398600480360381019061039391906131e0565b610b3b565b6040516103a59190612f63565b60405180910390f35b3480156103ba57600080fd5b506103c3610be0565b6040516103d09190612f63565b60405180910390f35b3480156103e557600080fd5b5061040060048036038101906103fb919061332d565b610be6565b005b34801561040e57600080fd5b506104296004803603810190610424919061312b565b610c06565b6040516104369190612f63565b60405180910390f35b34801561044b57600080fd5b506104666004803603810190610461919061312b565b610c77565b6040516104739190613199565b60405180910390f35b6104966004803603810190610491919061312b565b610caa565b005b3480156104a457600080fd5b506104bf60048036038101906104ba919061312b565b610f68565b6040516104cf9493929190613380565b60405180910390f35b3480156104e457600080fd5b506104ff60048036038101906104fa919061312b565b61107b565b60405161050c9190613199565b60405180910390f35b34801561052157600080fd5b5061053c60048036038101906105379190613220565b61112c565b6040516105499190612f63565b60405180910390f35b34801561055e57600080fd5b506105796004803603810190610574919061312b565b6111e3565b6040516105869190612f63565b60405180910390f35b34801561059b57600080fd5b506105a46111fb565b005b3480156105b257600080fd5b506105bb61120f565b6040516105c89190613199565b60405180910390f35b3480156105dd57600080fd5b506105e6611239565b6040516105f391906130dd565b60405180910390f35b34801561060857600080fd5b50610623600480360381019061061e919061312b565b6112cb565b6040516106339493929190613380565b60405180910390f35b34801561064857600080fd5b50610663600480360381019061065e91906133f8565b611383565b005b34801561067157600080fd5b5061068c6004803603810190610687919061356d565b611399565b005b34801561069a57600080fd5b506106b560048036038101906106b0919061312b565b611534565b6040516106c29190612f63565b60405180910390f35b3480156106d757600080fd5b506106f260048036038101906106ed91906135dc565b611551565b005b34801561070057600080fd5b5061071b600480360381019061071691906136bd565b6116c7565b005b34801561072957600080fd5b50610744600480360381019061073f919061312b565b611729565b60405161075191906130dd565b60405180910390f35b34801561076657600080fd5b50610781600480360381019061077c919061312b565b61173b565b60405161078e9190613199565b60405180910390f35b6107b160048036038101906107ac919061312b565b61174d565b005b3480156107bf57600080fd5b506107da60048036038101906107d59190613740565b611962565b6040516107e79190613032565b60405180910390f35b3480156107fc57600080fd5b5061081760048036038101906108129190613220565b6119f6565b005b600d5481565b600061082a82611a79565b9050919050565b606060008054610840906137af565b80601f016020809104026020016040519081016040528092919081815260200182805461086c906137af565b80156108b95780601f1061088e576101008083540402835291602001916108b9565b820191906000526020600020905b81548152906001019060200180831161089c57829003601f168201915b5050505050905090565b60006108ce82611af3565b6004600083815260200190815260200160002060009054906101000a900473ffffffffffffffffffffffffffffffffffffffff169050919050565b60006109148261107b565b90508073ffffffffffffffffffffffffffffffffffffffff168373ffffffffffffffffffffffffffffffffffffffff1603610984576040517f08c379a000000000000000000000000000000000000000000000000000000000815260040161097b90613852565b60405180910390fd5b8073ffffffffffffffffffffffffffffffffffffffff166109a3611b3e565b73ffffffffffffffffffffffffffffffffffffffff1614806109d257506109d1816109cc611b3e565b611962565b5b610a11576040517f08c379a0000000000000000000000000000000000000000000000000000000008152600401610a08906138e4565b60405180910390fd5b610a1b8383611b46565b505050565b60606000610a2d8361112c565b905060008167ffffffffffffffff811115610a4b57610a4a613442565b5b604051908082528060200260200182016040528015610a795781602001602082028036833780820191505090505b50905060005b82811015610ac357610a918582610b3b565b828281518110610aa457610aa3613904565b5b6020026020010181815250508080610abb90613962565b915050610a7f565b508092505050919050565b6000600880549050905090565b610aec610ae6611b3e565b82611bff565b610b2b576040517f08c379a0000000000000000000000000000000000000000000000000000000008152600401610b2290613a1c565b60405180910390fd5b610b36838383611c94565b505050565b6000610b468361112c565b8210610b87576040517f08c379a0000000000000000000000000000000000000000000000000000000008152600401610b7e90613aae565b60405180910390fd5b600660008473ffffffffffffffffffffffffffffffffffffffff1673ffffffffffffffffffffffffffffffffffffffff168152602001908152602001600020600083815260200190815260200160002054905092915050565b600c5481565b610c01838383604051806020016040528060008152506116c7565b505050565b6000610c10610ace565b8210610c51576040517f08c379a0000000000000000000000000000000000000000000000000000000008152600401610c4890613b40565b60405180910390fd5b60088281548110610c6557610c64613904565b5b90600052602060002001549050919050565b600f6020528060005260406000206000915054906101000a900473ffffffffffffffffffffffffffffffffffffffff1681565b6000601060008381526020019081526020016000205411610d00576040517f08c379a0000000000000000000000000000000000000000000000000000000008152600401610cf790613bac565b60405180910390fd5b60106000828152602001908152602001600020543414610d55576040517f08c379a0000000000000000000000000000000000000000000000000000000008152600401610d4c90613c18565b60405180910390fd5b6000600f600083815260200190815260200160002060009054906101000a900473ffffffffffffffffffffffffffffffffffffffff169050600073ffffffffffffffffffffffffffffffffffffffff168173ffffffffffffffffffffffffffffffffffffffff1603610dfc576040517f08c379a0000000000000000000000000000000000000000000000000000000008152600401610df390613c84565b60405180910390fd5b3373ffffffffffffffffffffffffffffffffffffffff168173ffffffffffffffffffffffffffffffffffffffff1603610e6a576040517f08c379a0000000000000000000000000000000000000000000000000000000008152600401610e6190613cf0565b60405180910390fd5b610e75813384611c94565b8073ffffffffffffffffffffffffffffffffffffffff166108fc349081150290604051600060405180830381858888f19350505050158015610ebb573d6000803e3d6000fd5b506010600083815260200190815260200160002060009055600f600083815260200190815260200160002060006101000a81549073ffffffffffffffffffffffffffffffffffffffff02191690558073ffffffffffffffffffffffffffffffffffffffff163373ffffffffffffffffffffffffffffffffffffffff16837ff076e74c3b31fba126074acbffcdd9d113b723bf30ad339f58dfe3002a8310df60405160405180910390a45050565b6060600080600080600e600087815260200190815260200160002090506000816002015411610fcc576040517f08c379a0000000000000000000000000000000000000000000000000000000008152600401610fc390613d5c565b60405180910390fd5b80600001816001015482600201548360030154838054610feb906137af565b80601f0160208091040260200160405190810160405280929190818152602001828054611017906137af565b80156110645780601f1061103957610100808354040283529160200191611064565b820191906000526020600020905b81548152906001019060200180831161104757829003601f168201915b505050505093509450945094509450509193509193565b6000806002600084815260200190815260200160002060009054906101000a900473ffffffffffffffffffffffffffffffffffffffff169050600073ffffffffffffffffffffffffffffffffffffffff168173ffffffffffffffffffffffffffffffffffffffff1603611123576040517f08c379a000000000000000000000000000000000000000000000000000000000815260040161111a90613dc8565b60405180910390fd5b80915050919050565b60008073ffffffffffffffffffffffffffffffffffffffff168273ffffffffffffffffffffffffffffffffffffffff160361119c576040517f08c379a000000000000000000000000000000000000000000000000000000000815260040161119390613e5a565b60405180910390fd5b600360008373ffffffffffffffffffffffffffffffffffffffff1673ffffffffffffffffffffffffffffffffffffffff168152602001908152602001600020549050919050565b60106020528060005260406000206000915090505481565b611203611efa565b61120d6000611f78565b565b6000600b60009054906101000a900473ffffffffffffffffffffffffffffffffffffffff16905090565b606060018054611248906137af565b80601f0160208091040260200160405190810160405280929190818152602001828054611274906137af565b80156112c15780601f10611296576101008083540402835291602001916112c1565b820191906000526020600020905b8154815290600101906020018083116112a457829003601f168201915b5050505050905090565b600e6020528060005260406000206000915090508060000180546112ee906137af565b80601f016020809104026020016040519081016040528092919081815260200182805461131a906137af565b80156113675780601f1061133c57610100808354040283529160200191611367565b820191906000526020600020905b81548152906001019060200180831161134a57829003601f168201915b5050505050908060010154908060020154908060030154905084565b61139561138e611b3e565b838361203e565b5050565b6113a1611efa565b600081116113e4576040517f08c379a00000000000000000000000000000000000000000000000000000000081526004016113db90613eec565b60405180910390fd5b60008211611427576040517f08c379a000000000000000000000000000000000000000000000000000000000815260040161141e90613f58565b60405180910390fd5b600083511161146b576040517f08c379a000000000000000000000000000000000000000000000000000000000815260040161146290613fc4565b60405180910390fd5b600c600081548092919061147e90613962565b919050555060405180608001604052808481526020018381526020018281526020016000815250600e6000600c54815260200190815260200160002060008201518160000190816114cf9190614190565b50602082015181600101556040820151816002015560608201518160030155905050600c547f62a03295cf3254097619e4c525c459f4c5385f131ff770541e79b7e63ac9d3a184848460405161152793929190614262565b60405180910390a2505050565b600060106000838152602001908152602001600020549050919050565b3373ffffffffffffffffffffffffffffffffffffffff166115718361107b565b73ffffffffffffffffffffffffffffffffffffffff16146115c7576040517f08c379a00000000000000000000000000000000000000000000000000000000081526004016115be90614312565b60405180910390fd5b6000811161160a576040517f08c379a000000000000000000000000000000000000000000000000000000000815260040161160190613f58565b60405180910390fd5b33600f600084815260200190815260200160002060006101000a81548173ffffffffffffffffffffffffffffffffffffffff021916908373ffffffffffffffffffffffffffffffffffffffff1602179055508060106000848152602001908152602001600020819055503373ffffffffffffffffffffffffffffffffffffffff16827ff78e8b672552c30bd4dc6a4d47324c771c972cde77a97fe66da1c8d7adbdbd16836040516116bb9190612f63565b60405180910390a35050565b6116d86116d2611b3e565b83611bff565b611717576040517f08c379a000000000000000000000000000000000000000000000000000000000815260040161170e90613a1c565b60405180910390fd5b611723848484846121aa565b50505050565b606061173482612206565b9050919050565b60006117468261107b565b9050919050565b6000600e6000838152602001908152602001600020905060008160020154116117ab576040517f08c379a00000000000000000000000000000000000000000000000000000000081526004016117a290613d5c565b60405180910390fd5b80600201548160030154106117f5576040517f08c379a00000000000000000000000000000000000000000000000000000000081526004016117ec9061437e565b60405180910390fd5b8060010154341461183b576040517f08c379a000000000000000000000000000000000000000000000000000000000815260040161183290613c18565b60405180910390fd5b6000600d6000815461184c90613962565b919050819055905081600301600081548092919061186990613962565b91905055506118783382612318565b61190e8183600001805461188b906137af565b80601f01602080910402602001604051908101604052809291908181526020018280546118b7906137af565b80156119045780601f106118d957610100808354040283529160200191611904565b820191906000526020600020905b8154815290600101906020018083116118e757829003601f168201915b5050505050612336565b3373ffffffffffffffffffffffffffffffffffffffff16837ffca9437e237ca408a74cca23e3078fd1f6c700960dac7f09f8c6cf5177aefe1a836040516119559190612f63565b60405180910390a3505050565b6000600560008473ffffffffffffffffffffffffffffffffffffffff1673ffffffffffffffffffffffffffffffffffffffff16815260200190815260200160002060008373ffffffffffffffffffffffffffffffffffffffff1673ffffffffffffffffffffffffffffffffffffffff16815260200190815260200160002060009054906101000a900460ff16905092915050565b6119fe611efa565b600073ffffffffffffffffffffffffffffffffffffffff168173ffffffffffffffffffffffffffffffffffffffff1603611a6d576040517f08c379a0000000000000000000000000000000000000000000000000000000008152600401611a6490614410565b60405180910390fd5b611a7681611f78565b50565b60007f780e9d63000000000000000000000000000000000000000000000000000000007bffffffffffffffffffffffffffffffffffffffffffffffffffffffff1916827bffffffffffffffffffffffffffffffffffffffffffffffffffffffff19161480611aec5750611aeb826123a3565b5b9050919050565b611afc81612485565b611b3b576040517f08c379a0000000000000000000000000000000000000000000000000000000008152600401611b3290613dc8565b60405180910390fd5b50565b600033905090565b816004600083815260200190815260200160002060006101000a81548173ffffffffffffffffffffffffffffffffffffffff021916908373ffffffffffffffffffffffffffffffffffffffff160217905550808273ffffffffffffffffffffffffffffffffffffffff16611bb98361107b565b73ffffffffffffffffffffffffffffffffffffffff167f8c5be1e5ebec7d5bd14f71427d1e84f3dd0314c0f7b2291e5b200ac8c7c3b92560405160405180910390a45050565b600080611c0b8361107b565b90508073ffffffffffffffffffffffffffffffffffffffff168473ffffffffffffffffffffffffffffffffffffffff161480611c4d5750611c4c8185611962565b5b80611c8b57508373ffffffffffffffffffffffffffffffffffffffff16611c73846108c3565b73ffffffffffffffffffffffffffffffffffffffff16145b91505092915050565b8273ffffffffffffffffffffffffffffffffffffffff16611cb48261107b565b73ffffffffffffffffffffffffffffffffffffffff1614611d0a576040517f08c379a0000000000000000000000000000000000000000000000000000000008152600401611d01906144a2565b60405180910390fd5b600073ffffffffffffffffffffffffffffffffffffffff168273ffffffffffffffffffffffffffffffffffffffff1603611d79576040517f08c379a0000000000000000000000000000000000000000000000000000000008152600401611d7090614534565b60405180910390fd5b611d848383836124f1565b611d8f600082611b46565b6001600360008573ffffffffffffffffffffffffffffffffffffffff1673ffffffffffffffffffffffffffffffffffffffff1681526020019081526020016000206000828254611ddf9190614554565b925050819055506001600360008473ffffffffffffffffffffffffffffffffffffffff1673ffffffffffffffffffffffffffffffffffffffff1681526020019081526020016000206000828254611e369190614588565b92505081905550816002600083815260200190815260200160002060006101000a81548173ffffffffffffffffffffffffffffffffffffffff021916908373ffffffffffffffffffffffffffffffffffffffff160217905550808273ffffffffffffffffffffffffffffffffffffffff168473ffffffffffffffffffffffffffffffffffffffff167fddf252ad1be2c89b69c2b068fc378daa952ba7f163c4a11628f55a4df523b3ef60405160405180910390a4611ef5838383612501565b505050565b611f02611b3e565b73ffffffffffffffffffffffffffffffffffffffff16611f2061120f565b73ffffffffffffffffffffffffffffffffffffffff1614611f76576040517f08c379a0000000000000000000000000000000000000000000000000000000008152600401611f6d90614608565b60405180910390fd5b565b6000600b60009054906101000a900473ffffffffffffffffffffffffffffffffffffffff16905081600b60006101000a81548173ffffffffffffffffffffffffffffffffffffffff021916908373ffffffffffffffffffffffffffffffffffffffff1602179055508173ffffffffffffffffffffffffffffffffffffffff168173ffffffffffffffffffffffffffffffffffffffff167f8be0079c531659141344cd1fd0a4f28419497f9722a3daafe3b4186f6b6457e060405160405180910390a35050565b8173ffffffffffffffffffffffffffffffffffffffff168373ffffffffffffffffffffffffffffffffffffffff16036120ac576040517f08c379a00000000000000000000000000000000000000000000000000000000081526004016120a390614674565b60405180910390fd5b80600560008573ffffffffffffffffffffffffffffffffffffffff1673ffffffffffffffffffffffffffffffffffffffff16815260200190815260200160002060008473ffffffffffffffffffffffffffffffffffffffff1673ffffffffffffffffffffffffffffffffffffffff16815260200190815260200160002060006101000a81548160ff0219169083151502179055508173ffffffffffffffffffffffffffffffffffffffff168373ffffffffffffffffffffffffffffffffffffffff167f17307eab39ab6107e8899845ad3d59bd9653f200f220920489ca2b5937696c318360405161219d9190613032565b60405180910390a3505050565b6121b5848484611c94565b6121c184848484612506565b612200576040517f08c379a00000000000000000000000000000000000000000000000000000000081526004016121f790614706565b60405180910390fd5b50505050565b606061221182611af3565b6000600a60008481526020019081526020016000208054612231906137af565b80601f016020809104026020016040519081016040528092919081815260200182805461225d906137af565b80156122aa5780601f1061227f576101008083540402835291602001916122aa565b820191906000526020600020905b81548152906001019060200180831161228d57829003601f168201915b5050505050905060006122bb61268d565b905060008151036122d0578192505050612313565b6000825111156123055780826040516020016122ed929190614762565b60405160208183030381529060405292505050612313565b61230e846126a4565b925050505b919050565b61233282826040518060200160405280600081525061270c565b5050565b61233f82612485565b61237e576040517f08c379a0000000000000000000000000000000000000000000000000000000008152600401612375906147f8565b60405180910390fd5b80600a6000848152602001908152602001600020908161239e9190614190565b505050565b60007f80ac58cd000000000000000000000000000000000000000000000000000000007bffffffffffffffffffffffffffffffffffffffffffffffffffffffff1916827bffffffffffffffffffffffffffffffffffffffffffffffffffffffff1916148061246e57507f5b5e139f000000000000000000000000000000000000000000000000000000007bffffffffffffffffffffffffffffffffffffffffffffffffffffffff1916827bffffffffffffffffffffffffffffffffffffffffffffffffffffffff1916145b8061247e575061247d82612767565b5b9050919050565b60008073ffffffffffffffffffffffffffffffffffffffff166002600084815260200190815260200160002060009054906101000a900473ffffffffffffffffffffffffffffffffffffffff1673ffffffffffffffffffffffffffffffffffffffff1614159050919050565b6124fc8383836127d1565b505050565b505050565b60006125278473ffffffffffffffffffffffffffffffffffffffff166128e3565b15612680578373ffffffffffffffffffffffffffffffffffffffff1663150b7a02612550611b3e565b8786866040518563ffffffff1660e01b8152600401612572949392919061486d565b6020604051808303816000875af19250505080156125ae57506040513d601f19601f820116820180604052508101906125ab91906148ce565b60015b612630573d80600081146125de576040519150601f19603f3d011682016040523d82523d6000602084013e6125e3565b606091505b506000815103612628576040517f08c379a000000000000000000000000000000000000000000000000000000000815260040161261f90614706565b60405180910390fd5b805181602001fd5b63150b7a0260e01b7bffffffffffffffffffffffffffffffffffffffffffffffffffffffff1916817bffffffffffffffffffffffffffffffffffffffffffffffffffffffff191614915050612685565b600190505b949350505050565b606060405180602001604052806000815250905090565b60606126af82611af3565b60006126b961268d565b905060008151116126d95760405180602001604052806000815250612704565b806126e384612906565b6040516020016126f4929190614762565b6040516020818303038152906040525b915050919050565b6127168383612a66565b6127236000848484612506565b612762576040517f08c379a000000000000000000000000000000000000000000000000000000000815260040161275990614706565b60405180910390fd5b505050565b60007f01ffc9a7000000000000000000000000000000000000000000000000000000007bffffffffffffffffffffffffffffffffffffffffffffffffffffffff1916827bffffffffffffffffffffffffffffffffffffffffffffffffffffffff1916149050919050565b6127dc838383612c3f565b600073ffffffffffffffffffffffffffffffffffffffff168373ffffffffffffffffffffffffffffffffffffffff160361281e5761281981612c44565b61285d565b8173ffffffffffffffffffffffffffffffffffffffff168373ffffffffffffffffffffffffffffffffffffffff161461285c5761285b8382612c8d565b5b5b600073ffffffffffffffffffffffffffffffffffffffff168273ffffffffffffffffffffffffffffffffffffffff160361289f5761289a81612dfa565b6128de565b8273ffffffffffffffffffffffffffffffffffffffff168273ffffffffffffffffffffffffffffffffffffffff16146128dd576128dc8282612ecb565b5b5b505050565b6000808273ffffffffffffffffffffffffffffffffffffffff163b119050919050565b60606000820361294d576040518060400160405280600181526020017f30000000000000000000000000000000000000000000000000000000000000008152509050612a61565b600082905060005b6000821461297f57808061296890613962565b915050600a82612978919061492a565b9150612955565b60008167ffffffffffffffff81111561299b5761299a613442565b5b6040519080825280601f01601f1916602001820160405280156129cd5781602001600182028036833780820191505090505b5090505b60008514612a5a576001826129e69190614554565b9150600a856129f5919061495b565b6030612a019190614588565b60f81b818381518110612a1757612a16613904565b5b60200101907effffffffffffffffffffffffffffffffffffffffffffffffffffffffffffff1916908160001a905350600a85612a53919061492a565b94506129d1565b8093505050505b919050565b600073ffffffffffffffffffffffffffffffffffffffff168273ffffffffffffffffffffffffffffffffffffffff1603612ad5576040517f08c379a0000000000000000000000000000000000000000000000000000000008152600401612acc906149d8565b60405180910390fd5b612ade81612485565b15612b1e576040517f08c379a0000000000000000000000000000000000000000000000000000000008152600401612b1590614a44565b60405180910390fd5b612b2a600083836124f1565b6001600360008473ffffffffffffffffffffffffffffffffffffffff1673ffffffffffffffffffffffffffffffffffffffff1681526020019081526020016000206000828254612b7a9190614588565b92505081905550816002600083815260200190815260200160002060006101000a81548173ffffffffffffffffffffffffffffffffffffffff021916908373ffffffffffffffffffffffffffffffffffffffff160217905550808273ffffffffffffffffffffffffffffffffffffffff16600073ffffffffffffffffffffffffffffffffffffffff167fddf252ad1be2c89b69c2b068fc378daa952ba7f163c4a11628f55a4df523b3ef60405160405180910390a4612c3b60008383612501565b5050565b505050565b6008805490506009600083815260200190815260200160002081905550600881908060018154018082558091505060019003906000526020600020016000909190919091505550565b60006001612c9a8461112c565b612ca49190614554565b9050600060076000848152602001908152602001600020549050818114612d89576000600660008673ffffffffffffffffffffffffffffffffffffffff1673ffffffffffffffffffffffffffffffffffffffff168152602001908152602001600020600084815260200190815260200160002054905080600660008773ffffffffffffffffffffffffffffffffffffffff1673ffffffffffffffffffffffffffffffffffffffff168152602001908152602001600020600084815260200190815260200160002081905550816007600083815260200190815260200160002081905550505b6007600084815260200190815260200160002060009055600660008573ffffffffffffffffffffffffffffffffffffffff1673ffffffffffffffffffffffffffffffffffffffff16815260200190815260200160002060008381526020019081526020016000206000905550505050565b60006001600880549050612e0e9190614554565b9050600060096000848152602001908152602001600020549050600060088381548110612e3e57612e3d613904565b5b906000526020600020015490508060088381548110612e6057612e5f613904565b5b906000526020600020018190555081600960008381526020019081526020016000208190555060096000858152602001908152602001600020600090556008805480612eaf57612eae614a64565b5b6001900381819060005260206000200160009055905550505050565b6000612ed68361112c565b905081600660008573ffffffffffffffffffffffffffffffffffffffff1673ffffffffffffffffffffffffffffffffffffffff168152602001908152602001600020600083815260200190815260200160002081905550806007600084815260200190815260200160002081905550505050565b6000819050919050565b612f5d81612f4a565b82525050565b6000602082019050612f786000830184612f54565b92915050565b6000604051905090565b600080fd5b600080fd5b60007fffffffff0000000000000000000000000000000000000000000000000000000082169050919050565b612fc781612f92565b8114612fd257600080fd5b50565b600081359050612fe481612fbe565b92915050565b60006020828403121561300057612fff612f88565b5b600061300e84828501612fd5565b91505092915050565b60008115159050919050565b61302c81613017565b82525050565b60006020820190506130476000830184613023565b92915050565b600081519050919050565b600082825260208201905092915050565b60005b8381101561308757808201518184015260208101905061306c565b60008484015250505050565b6000601f19601f8301169050919050565b60006130af8261304d565b6130b98185613058565b93506130c9818560208601613069565b6130d281613093565b840191505092915050565b600060208201905081810360008301526130f781846130a4565b905092915050565b61310881612f4a565b811461311357600080fd5b50565b600081359050613125816130ff565b92915050565b60006020828403121561314157613140612f88565b5b600061314f84828501613116565b91505092915050565b600073ffffffffffffffffffffffffffffffffffffffff82169050919050565b600061318382613158565b9050919050565b61319381613178565b82525050565b60006020820190506131ae600083018461318a565b92915050565b6131bd81613178565b81146131c857600080fd5b50565b6000813590506131da816131b4565b92915050565b600080604083850312156131f7576131f6612f88565b5b6000613205858286016131cb565b925050602061321685828601613116565b9150509250929050565b60006020828403121561323657613235612f88565b5b6000613244848285016131cb565b91505092915050565b600081519050919050565b600082825260208201905092915050565b6000819050602082019050919050565b61328281612f4a565b82525050565b60006132948383613279565b60208301905092915050565b6000602082019050919050565b60006132b88261324d565b6132c28185613258565b93506132cd83613269565b8060005b838110156132fe5781516132e58882613288565b97506132f0836132a0565b9250506001810190506132d1565b5085935050505092915050565b6000602082019050818103600083015261332581846132ad565b905092915050565b60008060006060848603121561334657613345612f88565b5b6000613354868287016131cb565b9350506020613365868287016131cb565b925050604061337686828701613116565b9150509250925092565b6000608082019050818103600083015261339a81876130a4565b90506133a96020830186612f54565b6133b66040830185612f54565b6133c36060830184612f54565b95945050505050565b6133d581613017565b81146133e057600080fd5b50565b6000813590506133f2816133cc565b92915050565b6000806040838503121561340f5761340e612f88565b5b600061341d858286016131cb565b925050602061342e858286016133e3565b9150509250929050565b600080fd5b600080fd5b7f4e487b7100000000000000000000000000000000000000000000000000000000600052604160045260246000fd5b61347a82613093565b810181811067ffffffffffffffff8211171561349957613498613442565b5b80604052505050565b60006134ac612f7e565b90506134b88282613471565b919050565b600067ffffffffffffffff8211156134d8576134d7613442565b5b6134e182613093565b9050602081019050919050565b82818337600083830152505050565b600061351061350b846134bd565b6134a2565b90508281526020810184848401111561352c5761352b61343d565b5b6135378482856134ee565b509392505050565b600082601f83011261355457613553613438565b5b81356135648482602086016134fd565b91505092915050565b60008060006060848603121561358657613585612f88565b5b600084013567ffffffffffffffff8111156135a4576135a3612f8d565b5b6135b08682870161353f565b93505060206135c186828701613116565b92505060406135d286828701613116565b9150509250925092565b600080604083850312156135f3576135f2612f88565b5b600061360185828601613116565b925050602061361285828601613116565b9150509250929050565b600067ffffffffffffffff82111561363757613636613442565b5b61364082613093565b9050602081019050919050565b600061366061365b8461361c565b6134a2565b90508281526020810184848401111561367c5761367b61343d565b5b6136878482856134ee565b509392505050565b600082601f8301126136a4576136a3613438565b5b81356136b484826020860161364d565b91505092915050565b600080600080608085870312156136d7576136d6612f88565b5b60006136e5878288016131cb565b94505060206136f6878288016131cb565b935050604061370787828801613116565b925050606085013567ffffffffffffffff81111561372857613727612f8d565b5b6137348782880161368f565b91505092959194509250565b6000806040838503121561375757613756612f88565b5b6000613765858286016131cb565b9250506020613776858286016131cb565b9150509250929050565b7f4e487b7100000000000000000000000000000000000000000000000000000000600052602260045260246000fd5b600060028204905060018216806137c757607f821691505b6020821081036137da576137d9613780565b5b50919050565b7f4552433732313a20617070726f76616c20746f2063757272656e74206f776e6560008201527f7200000000000000000000000000000000000000000000000000000000000000602082015250565b600061383c602183613058565b9150613847826137e0565b604082019050919050565b6000602082019050818103600083015261386b8161382f565b9050919050565b7f4552433732313a20617070726f76652063616c6c6572206973206e6f7420746f60008201527f6b656e206f776e6572206e6f7220617070726f76656420666f7220616c6c0000602082015250565b60006138ce603e83613058565b91506138d982613872565b604082019050919050565b600060208201905081810360008301526138fd816138c1565b9050919050565b7f4e487b7100000000000000000000000000000000000000000000000000000000600052603260045260246000fd5b7f4e487b7100000000000000000000000000000000000000000000000000000000600052601160045260246000fd5b600061396d82612f4a565b91507fffffffffffffffffffffffffffffffffffffffffffffffffffffffffffffffff820361399f5761399e613933565b5b600182019050919050565b7f4552433732313a2063616c6c6572206973206e6f7420746f6b656e206f776e6560008201527f72206e6f7220617070726f766564000000000000000000000000000000000000602082015250565b6000613a06602e83613058565b9150613a11826139aa565b604082019050919050565b60006020820190508181036000830152613a35816139f9565b9050919050565b7f455243373231456e756d657261626c653a206f776e657220696e646578206f7560008201527f74206f6620626f756e6473000000000000000000000000000000000000000000602082015250565b6000613a98602b83613058565b9150613aa382613a3c565b604082019050919050565b60006020820190508181036000830152613ac781613a8b565b9050919050565b7f455243373231456e756d657261626c653a20676c6f62616c20696e646578206f60008201527f7574206f6620626f756e64730000000000000000000000000000000000000000602082015250565b6000613b2a602c83613058565b9150613b3582613ace565b604082019050919050565b60006020820190508181036000830152613b5981613b1d565b9050919050565b7f4e4654206973206e6f7420666f722073616c6500000000000000000000000000600082015250565b6000613b96601383613058565b9150613ba182613b60565b602082019050919050565b60006020820190508181036000830152613bc581613b89565b9050919050565b7f496e636f7272656374207061796d656e7420616d6f756e740000000000000000600082015250565b6000613c02601883613058565b9150613c0d82613bcc565b602082019050919050565b60006020820190508181036000830152613c3181613bf5565b9050919050565b7f53656c6c6572206164647265737320697320696e76616c696400000000000000600082015250565b6000613c6e601983613058565b9150613c7982613c38565b602082019050919050565b60006020820190508181036000830152613c9d81613c61565b9050919050565b7f43616e6e6f742062757920796f7572206f776e204e4654000000000000000000600082015250565b6000613cda601783613058565b9150613ce582613ca4565b602082019050919050565b60006020820190508181036000830152613d0981613ccd565b9050919050565b7f436f7572736520646f6573206e6f742065786973740000000000000000000000600082015250565b6000613d46601583613058565b9150613d5182613d10565b602082019050919050565b60006020820190508181036000830152613d7581613d39565b9050919050565b7f4552433732313a20696e76616c696420746f6b656e2049440000000000000000600082015250565b6000613db2601883613058565b9150613dbd82613d7c565b602082019050919050565b60006020820190508181036000830152613de181613da5565b9050919050565b7f4552433732313a2061646472657373207a65726f206973206e6f74206120766160008201527f6c6964206f776e65720000000000000000000000000000000000000000000000602082015250565b6000613e44602983613058565b9150613e4f82613de8565b604082019050919050565b60006020820190508181036000830152613e7381613e37565b9050919050565b7f4d617820737570706c79206d7573742062652067726561746572207468616e2060008201527f7a65726f00000000000000000000000000000000000000000000000000000000602082015250565b6000613ed6602483613058565b9150613ee182613e7a565b604082019050919050565b60006020820190508181036000830152613f0581613ec9565b9050919050565b7f5072696365206d7573742062652067726561746572207468616e207a65726f00600082015250565b6000613f42601f83613058565b9150613f4d82613f0c565b602082019050919050565b60006020820190508181036000830152613f7181613f35565b9050919050565b7f5552492063616e6e6f7420626520656d70747900000000000000000000000000600082015250565b6000613fae601383613058565b9150613fb982613f78565b602082019050919050565b60006020820190508181036000830152613fdd81613fa1565b9050919050565b60008190508160005260206000209050919050565b60006020601f8301049050919050565b600082821b905092915050565b6000600883026140467fffffffffffffffffffffffffffffffffffffffffffffffffffffffffffffffff82614009565b6140508683614009565b95508019841693508086168417925050509392505050565b6000819050919050565b600061408d61408861408384612f4a565b614068565b612f4a565b9050919050565b6000819050919050565b6140a783614072565b6140bb6140b382614094565b848454614016565b825550505050565b600090565b6140d06140c3565b6140db81848461409e565b505050565b5b818110156140ff576140f46000826140c8565b6001810190506140e1565b5050565b601f8211156141445761411581613fe4565b61411e84613ff9565b8101602085101561412d578190505b61414161413985613ff9565b8301826140e0565b50505b505050565b600082821c905092915050565b600061416760001984600802614149565b1980831691505092915050565b60006141808383614156565b9150826002028217905092915050565b6141998261304d565b67ffffffffffffffff8111156141b2576141b1613442565b5b6141bc82546137af565b6141c7828285614103565b600060209050601f8311600181146141fa57600084156141e8578287015190505b6141f28582614174565b86555061425a565b601f19841661420886613fe4565b60005b828110156142305784890151825560018201915060208501945060208101905061420b565b8683101561424d5784890151614249601f891682614156565b8355505b6001600288020188555050505b505050505050565b6000606082019050818103600083015261427c81866130a4565b905061428b6020830185612f54565b6142986040830184612f54565b949350505050565b7f596f7520617265206e6f7420746865206f776e6572206f662074686973204e4660008201527f5400000000000000000000000000000000000000000000000000000000000000602082015250565b60006142fc602183613058565b9150614307826142a0565b604082019050919050565b6000602082019050818103600083015261432b816142ef565b9050919050565b7f4d617820737570706c7920726561636865640000000000000000000000000000600082015250565b6000614368601283613058565b915061437382614332565b602082019050919050565b600060208201905081810360008301526143978161435b565b9050919050565b7f4f776e61626c653a206e6577206f776e657220697320746865207a65726f206160008201527f6464726573730000000000000000000000000000000000000000000000000000602082015250565b60006143fa602683613058565b91506144058261439e565b604082019050919050565b60006020820190508181036000830152614429816143ed565b9050919050565b7f4552433732313a207472616e736665722066726f6d20696e636f72726563742060008201527f6f776e6572000000000000000000000000000000000000000000000000000000602082015250565b600061448c602583613058565b915061449782614430565b604082019050919050565b600060208201905081810360008301526144bb8161447f565b9050919050565b7f4552433732313a207472616e7366657220746f20746865207a65726f2061646460008201527f7265737300000000000000000000000000000000000000000000000000000000602082015250565b600061451e602483613058565b9150614529826144c2565b604082019050919050565b6000602082019050818103600083015261454d81614511565b9050919050565b600061455f82612f4a565b915061456a83612f4a565b925082820390508181111561458257614581613933565b5b92915050565b600061459382612f4a565b915061459e83612f4a565b92508282019050808211156145b6576145b5613933565b5b92915050565b7f4f776e61626c653a2063616c6c6572206973206e6f7420746865206f776e6572600082015250565b60006145f2602083613058565b91506145fd826145bc565b602082019050919050565b60006020820190508181036000830152614621816145e5565b9050919050565b7f4552433732313a20617070726f766520746f2063616c6c657200000000000000600082015250565b600061465e601983613058565b915061466982614628565b602082019050919050565b6000602082019050818103600083015261468d81614651565b9050919050565b7f4552433732313a207472616e7366657220746f206e6f6e20455243373231526560008201527f63656976657220696d706c656d656e7465720000000000000000000000000000602082015250565b60006146f0603283613058565b91506146fb82614694565b604082019050919050565b6000602082019050818103600083015261471f816146e3565b9050919050565b600081905092915050565b600061473c8261304d565b6147468185614726565b9350614756818560208601613069565b80840191505092915050565b600061476e8285614731565b915061477a8284614731565b91508190509392505050565b7f45524337323155524953746f726167653a2055524920736574206f66206e6f6e60008201527f6578697374656e7420746f6b656e000000000000000000000000000000000000602082015250565b60006147e2602e83613058565b91506147ed82614786565b604082019050919050565b60006020820190508181036000830152614811816147d5565b9050919050565b600081519050919050565b600082825260208201905092915050565b600061483f82614818565b6148498185614823565b9350614859818560208601613069565b61486281613093565b840191505092915050565b6000608082019050614882600083018761318a565b61488f602083018661318a565b61489c6040830185612f54565b81810360608301526148ae8184614834565b905095945050505050565b6000815190506148c881612fbe565b92915050565b6000602082840312156148e4576148e3612f88565b5b60006148f2848285016148b9565b91505092915050565b7f4e487b7100000000000000000000000000000000000000000000000000000000600052601260045260246000fd5b600061493582612f4a565b915061494083612f4a565b9250826149505761494f6148fb565b5b828204905092915050565b600061496682612f4a565b915061497183612f4a565b925082614981576149806148fb565b5b828206905092915050565b7f4552433732313a206d696e7420746f20746865207a65726f2061646472657373600082015250565b60006149c2602083613058565b91506149cd8261498c565b602082019050919050565b600060208201905081810360008301526149f1816149b5565b9050919050565b7f4552433732313a20746f6b656e20616c7265616479206d696e74656400000000600082015250565b6000614a2e601c83613058565b9150614a39826149f8565b602082019050919050565b60006020820190508181036000830152614a5d81614a21565b9050919050565b7f4e487b7100000000000000000000000000000000000000000000000000000000600052603160045260246000fdfea2646970667358221220822777f5cb317dcec93261790d2952699717d6fc6b9a34bf3993d6c1fd09c9e264736f6c63430008120033",
  "linkReferences": {},
  "deployedLinkReferences": {}
}